{
	"_format": "hh-sol-artifact-1",
	"contractName": "NFT",
	"sourceName": "contracts/NFT.sol",
	"abi": [
		{
			"inputs": [
				{
					"internalType": "address",
					"name": "marketplaceAddress",
					"type": "address"
				}
			],
			"stateMutability": "nonpayable",
			"type": "constructor"
		},
		{
			"anonymous": false,
			"inputs": [
				{
					"indexed": true,
					"internalType": "address",
					"name": "owner",
					"type": "address"
				},
				{
					"indexed": true,
					"internalType": "address",
					"name": "approved",
					"type": "address"
				},
				{
					"indexed": true,
					"internalType": "uint256",
					"name": "tokenId",
					"type": "uint256"
				}
			],
			"name": "Approval",
			"type": "event"
		},
		{
			"anonymous": false,
			"inputs": [
				{
					"indexed": true,
					"internalType": "address",
					"name": "owner",
					"type": "address"
				},
				{
					"indexed": true,
					"internalType": "address",
					"name": "operator",
					"type": "address"
				},
				{
					"indexed": false,
					"internalType": "bool",
					"name": "approved",
					"type": "bool"
				}
			],
			"name": "ApprovalForAll",
			"type": "event"
		},
		{
			"anonymous": false,
			"inputs": [
				{
					"indexed": true,
					"internalType": "address",
					"name": "from",
					"type": "address"
				},
				{
					"indexed": true,
					"internalType": "address",
					"name": "to",
					"type": "address"
				},
				{
					"indexed": true,
					"internalType": "uint256",
					"name": "tokenId",
					"type": "uint256"
				}
			],
			"name": "Transfer",
			"type": "event"
		},
		{
			"inputs": [
				{
					"internalType": "address",
					"name": "to",
					"type": "address"
				},
				{
					"internalType": "uint256",
					"name": "tokenId",
					"type": "uint256"
				}
			],
			"name": "approve",
			"outputs": [],
			"stateMutability": "nonpayable",
			"type": "function"
		},
		{
			"inputs": [
				{
					"internalType": "address",
					"name": "owner",
					"type": "address"
				}
			],
			"name": "balanceOf",
			"outputs": [
				{
					"internalType": "uint256",
					"name": "",
					"type": "uint256"
				}
			],
			"stateMutability": "view",
			"type": "function"
		},
		{
			"inputs": [],
			"name": "collectionName",
			"outputs": [
				{
					"internalType": "string",
					"name": "",
					"type": "string"
				}
			],
			"stateMutability": "view",
			"type": "function"
		},
		{
			"inputs": [],
			"name": "collectionSymbol",
			"outputs": [
				{
					"internalType": "string",
					"name": "",
					"type": "string"
				}
			],
			"stateMutability": "view",
			"type": "function"
		},
		{
			"inputs": [
				{
					"internalType": "string",
					"name": "tokenUri",
					"type": "string"
				}
			],
			"name": "createNFT",
			"outputs": [
				{
					"internalType": "uint256",
					"name": "",
					"type": "uint256"
				}
			],
			"stateMutability": "nonpayable",
			"type": "function"
		},
		{
			"inputs": [
				{
					"internalType": "uint256",
					"name": "tokenId",
					"type": "uint256"
				}
			],
			"name": "getApproved",
			"outputs": [
				{
					"internalType": "address",
					"name": "",
					"type": "address"
				}
			],
			"stateMutability": "view",
			"type": "function"
		},
		{
			"inputs": [
				{
					"internalType": "uint256",
					"name": "",
					"type": "uint256"
				}
			],
			"name": "idToNFTItems",
			"outputs": [
				{
					"internalType": "uint256",
					"name": "tokenId",
					"type": "uint256"
				},
				{
					"internalType": "address",
					"name": "owner",
					"type": "address"
				},
				{
					"internalType": "string",
					"name": "tokenUri",
					"type": "string"
				}
			],
			"stateMutability": "view",
			"type": "function"
		},
		{
			"inputs": [
				{
					"internalType": "address",
					"name": "owner",
					"type": "address"
				},
				{
					"internalType": "address",
					"name": "operator",
					"type": "address"
				}
			],
			"name": "isApprovedForAll",
			"outputs": [
				{
					"internalType": "bool",
					"name": "",
					"type": "bool"
				}
			],
			"stateMutability": "view",
			"type": "function"
		},
		{
			"inputs": [],
			"name": "name",
			"outputs": [
				{
					"internalType": "string",
					"name": "",
					"type": "string"
				}
			],
			"stateMutability": "view",
			"type": "function"
		},
		{
			"inputs": [
				{
					"internalType": "uint256",
					"name": "tokenId",
					"type": "uint256"
				}
			],
			"name": "ownerOf",
			"outputs": [
				{
					"internalType": "address",
					"name": "",
					"type": "address"
				}
			],
			"stateMutability": "view",
			"type": "function"
		},
		{
			"inputs": [
				{
					"internalType": "address",
					"name": "from",
					"type": "address"
				},
				{
					"internalType": "address",
					"name": "to",
					"type": "address"
				},
				{
					"internalType": "uint256",
					"name": "tokenId",
					"type": "uint256"
				}
			],
			"name": "safeTransferFrom",
			"outputs": [],
			"stateMutability": "nonpayable",
			"type": "function"
		},
		{
			"inputs": [
				{
					"internalType": "address",
					"name": "from",
					"type": "address"
				},
				{
					"internalType": "address",
					"name": "to",
					"type": "address"
				},
				{
					"internalType": "uint256",
					"name": "tokenId",
					"type": "uint256"
				},
				{
					"internalType": "bytes",
					"name": "_data",
					"type": "bytes"
				}
			],
			"name": "safeTransferFrom",
			"outputs": [],
			"stateMutability": "nonpayable",
			"type": "function"
		},
		{
			"inputs": [
				{
					"internalType": "address",
					"name": "operator",
					"type": "address"
				},
				{
					"internalType": "bool",
					"name": "approved",
					"type": "bool"
				}
			],
			"name": "setApprovalForAll",
			"outputs": [],
			"stateMutability": "nonpayable",
			"type": "function"
		},
		{
			"inputs": [
				{
					"internalType": "bytes4",
					"name": "interfaceId",
					"type": "bytes4"
				}
			],
			"name": "supportsInterface",
			"outputs": [
				{
					"internalType": "bool",
					"name": "",
					"type": "bool"
				}
			],
			"stateMutability": "view",
			"type": "function"
		},
		{
			"inputs": [],
			"name": "symbol",
			"outputs": [
				{
					"internalType": "string",
					"name": "",
					"type": "string"
				}
			],
			"stateMutability": "view",
			"type": "function"
		},
		{
			"inputs": [
				{
					"internalType": "uint256",
					"name": "tokenId",
					"type": "uint256"
				}
			],
			"name": "tokenURI",
			"outputs": [
				{
					"internalType": "string",
					"name": "",
					"type": "string"
				}
			],
			"stateMutability": "view",
			"type": "function"
		},
		{
			"inputs": [
				{
					"internalType": "address",
					"name": "from",
					"type": "address"
				},
				{
					"internalType": "address",
					"name": "to",
					"type": "address"
				},
				{
					"internalType": "uint256",
					"name": "tokenId",
					"type": "uint256"
				}
			],
			"name": "transferFrom",
			"outputs": [],
			"stateMutability": "nonpayable",
			"type": "function"
		}
	],
	"bytecode": "0x60806040523480156200001157600080fd5b506040516200334f3803806200334f83398181016040528101906200003791906200036a565b6040518060400160405280600b81526020017f5468696e6b7273204e46540000000000000000000000000000000000000000008152506040518060400160405280600581526020017f5448494e4b0000000000000000000000000000000000000000000000000000008152508160009080519060200190620000bb929190620002a3565b508060019080519060200190620000d4929190620002a3565b50505080600860006101000a81548173ffffffffffffffffffffffffffffffffffffffff021916908373ffffffffffffffffffffffffffffffffffffffff160217905550620001286200016f60201b60201c565b600990805190602001906200013f929190620002a3565b50620001506200020960201b60201c565b600a908051906020019062000167929190620002a3565b505062000449565b6060600080546200018090620003ca565b80601f0160208091040260200160405190810160405280929190818152602001828054620001ae90620003ca565b8015620001ff5780601f10620001d357610100808354040283529160200191620001ff565b820191906000526020600020905b815481529060010190602001808311620001e157829003601f168201915b5050505050905090565b6060600180546200021a90620003ca565b80601f01602080910402602001604051908101604052809291908181526020018280546200024890620003ca565b8015620002995780601f106200026d5761010080835404028352916020019162000299565b820191906000526020600020905b8154815290600101906020018083116200027b57829003601f168201915b5050505050905090565b828054620002b190620003ca565b90600052602060002090601f016020900481019282620002d5576000855562000321565b82601f10620002f057805160ff191683800117855562000321565b8280016001018555821562000321579182015b828111156200032057825182559160200191906001019062000303565b5b50905062000330919062000334565b5090565b5b808211156200034f57600081600090555060010162000335565b5090565b60008151905062000364816200042f565b92915050565b6000602082840312156200037d57600080fd5b60006200038d8482850162000353565b91505092915050565b6000620003a382620003aa565b9050919050565b600073ffffffffffffffffffffffffffffffffffffffff82169050919050565b60006002820490506001821680620003e357607f821691505b60208210811415620003fa57620003f962000400565b5b50919050565b7f4e487b7100000000000000000000000000000000000000000000000000000000600052602260045260246000fd5b6200043a8162000396565b81146200044657600080fd5b50565b612ef680620004596000396000f3fe608060405234801561001057600080fd5b506004361061010b5760003560e01c80636352211e116100a2578063b88d4fde11610071578063b88d4fde146102cc578063c87b56dd146102e8578063da2ed03e14610318578063e5326ab114610348578063e985e9c5146103665761010b565b80636352211e1461023257806370a082311461026257806395d89b4114610292578063a22cb465146102b05761010b565b806323b872dd116100de57806323b872dd146101aa5780632f39352a146101c6578063421c92cc146101e457806342842e0e146102165761010b565b806301ffc9a71461011057806306fdde0314610140578063081812fc1461015e578063095ea7b31461018e575b600080fd5b61012a60048036038101906101259190611f24565b610396565b604051610137919061236b565b60405180910390f35b610148610478565b6040516101559190612386565b60405180910390f35b61017860048036038101906101739190611fb7565b61050a565b6040516101859190612304565b60405180910390f35b6101a860048036038101906101a39190611ee8565b61058f565b005b6101c460048036038101906101bf9190611de2565b6106a7565b005b6101ce610707565b6040516101db9190612386565b60405180910390f35b6101fe60048036038101906101f99190611fb7565b610795565b60405161020d939291906125c3565b60405180910390f35b610230600480360381019061022b9190611de2565b610867565b005b61024c60048036038101906102479190611fb7565b610887565b6040516102599190612304565b60405180910390f35b61027c60048036038101906102779190611d7d565b610939565b60405161028991906125a8565b60405180910390f35b61029a6109f1565b6040516102a79190612386565b60405180910390f35b6102ca60048036038101906102c59190611eac565b610a83565b005b6102e660048036038101906102e19190611e31565b610a99565b005b61030260048036038101906102fd9190611fb7565b610afb565b60405161030f9190612386565b60405180910390f35b610332600480360381019061032d9190611f76565b610c4d565b60405161033f91906125a8565b60405180910390f35b610350610d65565b60405161035d9190612386565b60405180910390f35b610380600480360381019061037b9190611da6565b610df3565b60405161038d919061236b565b60405180910390f35b60007f80ac58cd000000000000000000000000000000000000000000000000000000007bffffffffffffffffffffffffffffffffffffffffffffffffffffffff1916827bffffffffffffffffffffffffffffffffffffffffffffffffffffffff1916148061046157507f5b5e139f000000000000000000000000000000000000000000000000000000007bffffffffffffffffffffffffffffffffffffffffffffffffffffffff1916827bffffffffffffffffffffffffffffffffffffffffffffffffffffffff1916145b80610471575061047082610e87565b5b9050919050565b6060600080546104879061283c565b80601f01602080910402602001604051908101604052809291908181526020018280546104b39061283c565b80156105005780601f106104d557610100808354040283529160200191610500565b820191906000526020600020905b8154815290600101906020018083116104e357829003601f168201915b5050505050905090565b600061051582610ef1565b610554576040517f08c379a000000000000000000000000000000000000000000000000000000000815260040161054b90612508565b60405180910390fd5b6004600083815260200190815260200160002060009054906101000a900473ffffffffffffffffffffffffffffffffffffffff169050919050565b600061059a82610887565b90508073ffffffffffffffffffffffffffffffffffffffff168373ffffffffffffffffffffffffffffffffffffffff16141561060b576040517f08c379a000000000000000000000000000000000000000000000000000000000815260040161060290612568565b60405180910390fd5b8073ffffffffffffffffffffffffffffffffffffffff1661062a610f5d565b73ffffffffffffffffffffffffffffffffffffffff161480610659575061065881610653610f5d565b610df3565b5b610698576040517f08c379a000000000000000000000000000000000000000000000000000000000815260040161068f90612448565b60405180910390fd5b6106a28383610f65565b505050565b6106b86106b2610f5d565b8261101e565b6106f7576040517f08c379a00000000000000000000000000000000000000000000000000000000081526004016106ee90612588565b60405180910390fd5b6107028383836110fc565b505050565b600a80546107149061283c565b80601f01602080910402602001604051908101604052809291908181526020018280546107409061283c565b801561078d5780601f106107625761010080835404028352916020019161078d565b820191906000526020600020905b81548152906001019060200180831161077057829003601f168201915b505050505081565b600b6020528060005260406000206000915090508060000154908060010160009054906101000a900473ffffffffffffffffffffffffffffffffffffffff16908060020180546107e49061283c565b80601f01602080910402602001604051908101604052809291908181526020018280546108109061283c565b801561085d5780601f106108325761010080835404028352916020019161085d565b820191906000526020600020905b81548152906001019060200180831161084057829003601f168201915b5050505050905083565b61088283838360405180602001604052806000815250610a99565b505050565b6000806002600084815260200190815260200160002060009054906101000a900473ffffffffffffffffffffffffffffffffffffffff169050600073ffffffffffffffffffffffffffffffffffffffff168173ffffffffffffffffffffffffffffffffffffffff161415610930576040517f08c379a000000000000000000000000000000000000000000000000000000000815260040161092790612488565b60405180910390fd5b80915050919050565b60008073ffffffffffffffffffffffffffffffffffffffff168273ffffffffffffffffffffffffffffffffffffffff1614156109aa576040517f08c379a00000000000000000000000000000000000000000000000000000000081526004016109a190612468565b60405180910390fd5b600360008373ffffffffffffffffffffffffffffffffffffffff1673ffffffffffffffffffffffffffffffffffffffff168152602001908152602001600020549050919050565b606060018054610a009061283c565b80601f0160208091040260200160405190810160405280929190818152602001828054610a2c9061283c565b8015610a795780601f10610a4e57610100808354040283529160200191610a79565b820191906000526020600020905b815481529060010190602001808311610a5c57829003601f168201915b5050505050905090565b610a95610a8e610f5d565b8383611358565b5050565b610aaa610aa4610f5d565b8361101e565b610ae9576040517f08c379a0000000000000000000000000000000000000000000000000000000008152600401610ae090612588565b60405180910390fd5b610af5848484846114c5565b50505050565b6060610b0682610ef1565b610b45576040517f08c379a0000000000000000000000000000000000000000000000000000000008152600401610b3c906124e8565b60405180910390fd5b6000600660008481526020019081526020016000208054610b659061283c565b80601f0160208091040260200160405190810160405280929190818152602001828054610b919061283c565b8015610bde5780601f10610bb357610100808354040283529160200191610bde565b820191906000526020600020905b815481529060010190602001808311610bc157829003601f168201915b505050505090506000610bef611521565b9050600081511415610c05578192505050610c48565b600082511115610c3a578082604051602001610c229291906122e0565b60405160208183030381529060405292505050610c48565b610c4384611538565b925050505b919050565b600080610c5a60076115df565b9050610c6633826115ed565b610c7081846117bb565b610c9d600860009054906101000a900473ffffffffffffffffffffffffffffffffffffffff166001610a83565b60405180606001604052808281526020013373ffffffffffffffffffffffffffffffffffffffff16815260200184815250600b60008381526020019081526020016000206000820151816000015560208201518160010160006101000a81548173ffffffffffffffffffffffffffffffffffffffff021916908373ffffffffffffffffffffffffffffffffffffffff1602179055506040820151816002019080519060200190610d4e929190611ba1565b50905050610d5c600761182f565b80915050919050565b60098054610d729061283c565b80601f0160208091040260200160405190810160405280929190818152602001828054610d9e9061283c565b8015610deb5780601f10610dc057610100808354040283529160200191610deb565b820191906000526020600020905b815481529060010190602001808311610dce57829003601f168201915b505050505081565b6000600560008473ffffffffffffffffffffffffffffffffffffffff1673ffffffffffffffffffffffffffffffffffffffff16815260200190815260200160002060008373ffffffffffffffffffffffffffffffffffffffff1673ffffffffffffffffffffffffffffffffffffffff16815260200190815260200160002060009054906101000a900460ff16905092915050565b60007f01ffc9a7000000000000000000000000000000000000000000000000000000007bffffffffffffffffffffffffffffffffffffffffffffffffffffffff1916827bffffffffffffffffffffffffffffffffffffffffffffffffffffffff1916149050919050565b60008073ffffffffffffffffffffffffffffffffffffffff166002600084815260200190815260200160002060009054906101000a900473ffffffffffffffffffffffffffffffffffffffff1673ffffffffffffffffffffffffffffffffffffffff1614159050919050565b600033905090565b816004600083815260200190815260200160002060006101000a81548173ffffffffffffffffffffffffffffffffffffffff021916908373ffffffffffffffffffffffffffffffffffffffff160217905550808273ffffffffffffffffffffffffffffffffffffffff16610fd883610887565b73ffffffffffffffffffffffffffffffffffffffff167f8c5be1e5ebec7d5bd14f71427d1e84f3dd0314c0f7b2291e5b200ac8c7c3b92560405160405180910390a45050565b600061102982610ef1565b611068576040517f08c379a000000000000000000000000000000000000000000000000000000000815260040161105f90612428565b60405180910390fd5b600061107383610887565b90508073ffffffffffffffffffffffffffffffffffffffff168473ffffffffffffffffffffffffffffffffffffffff1614806110e257508373ffffffffffffffffffffffffffffffffffffffff166110ca8461050a565b73ffffffffffffffffffffffffffffffffffffffff16145b806110f357506110f28185610df3565b5b91505092915050565b8273ffffffffffffffffffffffffffffffffffffffff1661111c82610887565b73ffffffffffffffffffffffffffffffffffffffff1614611172576040517f08c379a000000000000000000000000000000000000000000000000000000000815260040161116990612528565b60405180910390fd5b600073ffffffffffffffffffffffffffffffffffffffff168273ffffffffffffffffffffffffffffffffffffffff1614156111e2576040517f08c379a00000000000000000000000000000000000000000000000000000000081526004016111d9906123e8565b60405180910390fd5b6111ed838383611845565b6111f8600082610f65565b6001600360008573ffffffffffffffffffffffffffffffffffffffff1673ffffffffffffffffffffffffffffffffffffffff16815260200190815260200160002060008282546112489190612752565b925050819055506001600360008473ffffffffffffffffffffffffffffffffffffffff1673ffffffffffffffffffffffffffffffffffffffff168152602001908152602001600020600082825461129f91906126cb565b92505081905550816002600083815260200190815260200160002060006101000a81548173ffffffffffffffffffffffffffffffffffffffff021916908373ffffffffffffffffffffffffffffffffffffffff160217905550808273ffffffffffffffffffffffffffffffffffffffff168473ffffffffffffffffffffffffffffffffffffffff167fddf252ad1be2c89b69c2b068fc378daa952ba7f163c4a11628f55a4df523b3ef60405160405180910390a4505050565b8173ffffffffffffffffffffffffffffffffffffffff168373ffffffffffffffffffffffffffffffffffffffff1614156113c7576040517f08c379a00000000000000000000000000000000000000000000000000000000081526004016113be90612408565b60405180910390fd5b80600560008573ffffffffffffffffffffffffffffffffffffffff1673ffffffffffffffffffffffffffffffffffffffff16815260200190815260200160002060008473ffffffffffffffffffffffffffffffffffffffff1673ffffffffffffffffffffffffffffffffffffffff16815260200190815260200160002060006101000a81548160ff0219169083151502179055508173ffffffffffffffffffffffffffffffffffffffff168373ffffffffffffffffffffffffffffffffffffffff167f17307eab39ab6107e8899845ad3d59bd9653f200f220920489ca2b5937696c31836040516114b8919061236b565b60405180910390a3505050565b6114d08484846110fc565b6114dc8484848461184a565b61151b576040517f08c379a0000000000000000000000000000000000000000000000000000000008152600401611512906123a8565b60405180910390fd5b50505050565b606060405180602001604052806000815250905090565b606061154382610ef1565b611582576040517f08c379a000000000000000000000000000000000000000000000000000000000815260040161157990612548565b60405180910390fd5b600061158c611521565b905060008151116115ac57604051806020016040528060008152506115d7565b806115b6846119e1565b6040516020016115c79291906122e0565b6040516020818303038152906040525b915050919050565b600081600001549050919050565b600073ffffffffffffffffffffffffffffffffffffffff168273ffffffffffffffffffffffffffffffffffffffff16141561165d576040517f08c379a0000000000000000000000000000000000000000000000000000000008152600401611654906124c8565b60405180910390fd5b61166681610ef1565b156116a6576040517f08c379a000000000000000000000000000000000000000000000000000000000815260040161169d906123c8565b60405180910390fd5b6116b260008383611845565b6001600360008473ffffffffffffffffffffffffffffffffffffffff1673ffffffffffffffffffffffffffffffffffffffff168152602001908152602001600020600082825461170291906126cb565b92505081905550816002600083815260200190815260200160002060006101000a81548173ffffffffffffffffffffffffffffffffffffffff021916908373ffffffffffffffffffffffffffffffffffffffff160217905550808273ffffffffffffffffffffffffffffffffffffffff16600073ffffffffffffffffffffffffffffffffffffffff167fddf252ad1be2c89b69c2b068fc378daa952ba7f163c4a11628f55a4df523b3ef60405160405180910390a45050565b6117c482610ef1565b611803576040517f08c379a00000000000000000000000000000000000000000000000000000000081526004016117fa906124a8565b60405180910390fd5b8060066000848152602001908152602001600020908051906020019061182a929190611ba1565b505050565b6001816000016000828254019250508190555050565b505050565b600061186b8473ffffffffffffffffffffffffffffffffffffffff16611b8e565b156119d4578373ffffffffffffffffffffffffffffffffffffffff1663150b7a02611894610f5d565b8786866040518563ffffffff1660e01b81526004016118b6949392919061231f565b602060405180830381600087803b1580156118d057600080fd5b505af192505050801561190157506040513d601f19601f820116820180604052508101906118fe9190611f4d565b60015b611984573d8060008114611931576040519150601f19603f3d011682016040523d82523d6000602084013e611936565b606091505b5060008151141561197c576040517f08c379a0000000000000000000000000000000000000000000000000000000008152600401611973906123a8565b60405180910390fd5b805181602001fd5b63150b7a0260e01b7bffffffffffffffffffffffffffffffffffffffffffffffffffffffff1916817bffffffffffffffffffffffffffffffffffffffffffffffffffffffff1916149150506119d9565b600190505b949350505050565b60606000821415611a29576040518060400160405280600181526020017f30000000000000000000000000000000000000000000000000000000000000008152509050611b89565b600082905060005b60008214611a5b578080611a449061289f565b915050600a82611a549190612721565b9150611a31565b60008167ffffffffffffffff811115611a9d577f4e487b7100000000000000000000000000000000000000000000000000000000600052604160045260246000fd5b6040519080825280601f01601f191660200182016040528015611acf5781602001600182028036833780820191505090505b5090505b60008514611b8257600182611ae89190612752565b9150600a85611af791906128e8565b6030611b0391906126cb565b60f81b818381518110611b3f577f4e487b7100000000000000000000000000000000000000000000000000000000600052603260045260246000fd5b60200101907effffffffffffffffffffffffffffffffffffffffffffffffffffffffffffff1916908160001a905350600a85611b7b9190612721565b9450611ad3565b8093505050505b919050565b600080823b905060008111915050919050565b828054611bad9061283c565b90600052602060002090601f016020900481019282611bcf5760008555611c16565b82601f10611be857805160ff1916838001178555611c16565b82800160010185558215611c16579182015b82811115611c15578251825591602001919060010190611bfa565b5b509050611c239190611c27565b5090565b5b80821115611c40576000816000905550600101611c28565b5090565b6000611c57611c5284612626565b612601565b905082815260208101848484011115611c6f57600080fd5b611c7a8482856127fa565b509392505050565b6000611c95611c9084612657565b612601565b905082815260208101848484011115611cad57600080fd5b611cb88482856127fa565b509392505050565b600081359050611ccf81612e64565b92915050565b600081359050611ce481612e7b565b92915050565b600081359050611cf981612e92565b92915050565b600081519050611d0e81612e92565b92915050565b600082601f830112611d2557600080fd5b8135611d35848260208601611c44565b91505092915050565b600082601f830112611d4f57600080fd5b8135611d5f848260208601611c82565b91505092915050565b600081359050611d7781612ea9565b92915050565b600060208284031215611d8f57600080fd5b6000611d9d84828501611cc0565b91505092915050565b60008060408385031215611db957600080fd5b6000611dc785828601611cc0565b9250506020611dd885828601611cc0565b9150509250929050565b600080600060608486031215611df757600080fd5b6000611e0586828701611cc0565b9350506020611e1686828701611cc0565b9250506040611e2786828701611d68565b9150509250925092565b60008060008060808587031215611e4757600080fd5b6000611e5587828801611cc0565b9450506020611e6687828801611cc0565b9350506040611e7787828801611d68565b925050606085013567ffffffffffffffff811115611e9457600080fd5b611ea087828801611d14565b91505092959194509250565b60008060408385031215611ebf57600080fd5b6000611ecd85828601611cc0565b9250506020611ede85828601611cd5565b9150509250929050565b60008060408385031215611efb57600080fd5b6000611f0985828601611cc0565b9250506020611f1a85828601611d68565b9150509250929050565b600060208284031215611f3657600080fd5b6000611f4484828501611cea565b91505092915050565b600060208284031215611f5f57600080fd5b6000611f6d84828501611cff565b91505092915050565b600060208284031215611f8857600080fd5b600082013567ffffffffffffffff811115611fa257600080fd5b611fae84828501611d3e565b91505092915050565b600060208284031215611fc957600080fd5b6000611fd784828501611d68565b91505092915050565b611fe981612786565b82525050565b611ff881612798565b82525050565b600061200982612688565b612013818561269e565b9350612023818560208601612809565b61202c816129d5565b840191505092915050565b600061204282612693565b61204c81856126af565b935061205c818560208601612809565b612065816129d5565b840191505092915050565b600061207b82612693565b61208581856126c0565b9350612095818560208601612809565b80840191505092915050565b60006120ae6032836126af565b91506120b9826129e6565b604082019050919050565b60006120d1601c836126af565b91506120dc82612a35565b602082019050919050565b60006120f46024836126af565b91506120ff82612a5e565b604082019050919050565b60006121176019836126af565b915061212282612aad565b602082019050919050565b600061213a602c836126af565b915061214582612ad6565b604082019050919050565b600061215d6038836126af565b915061216882612b25565b604082019050919050565b6000612180602a836126af565b915061218b82612b74565b604082019050919050565b60006121a36029836126af565b91506121ae82612bc3565b604082019050919050565b60006121c6602e836126af565b91506121d182612c12565b604082019050919050565b60006121e96020836126af565b91506121f482612c61565b602082019050919050565b600061220c6031836126af565b915061221782612c8a565b604082019050919050565b600061222f602c836126af565b915061223a82612cd9565b604082019050919050565b60006122526029836126af565b915061225d82612d28565b604082019050919050565b6000612275602f836126af565b915061228082612d77565b604082019050919050565b60006122986021836126af565b91506122a382612dc6565b604082019050919050565b60006122bb6031836126af565b91506122c682612e15565b604082019050919050565b6122da816127f0565b82525050565b60006122ec8285612070565b91506122f88284612070565b91508190509392505050565b60006020820190506123196000830184611fe0565b92915050565b60006080820190506123346000830187611fe0565b6123416020830186611fe0565b61234e60408301856122d1565b81810360608301526123608184611ffe565b905095945050505050565b60006020820190506123806000830184611fef565b92915050565b600060208201905081810360008301526123a08184612037565b905092915050565b600060208201905081810360008301526123c1816120a1565b9050919050565b600060208201905081810360008301526123e1816120c4565b9050919050565b60006020820190508181036000830152612401816120e7565b9050919050565b600060208201905081810360008301526124218161210a565b9050919050565b600060208201905081810360008301526124418161212d565b9050919050565b6000602082019050818103600083015261246181612150565b9050919050565b6000602082019050818103600083015261248181612173565b9050919050565b600060208201905081810360008301526124a181612196565b9050919050565b600060208201905081810360008301526124c1816121b9565b9050919050565b600060208201905081810360008301526124e1816121dc565b9050919050565b60006020820190508181036000830152612501816121ff565b9050919050565b6000602082019050818103600083015261252181612222565b9050919050565b6000602082019050818103600083015261254181612245565b9050919050565b6000602082019050818103600083015261256181612268565b9050919050565b600060208201905081810360008301526125818161228b565b9050919050565b600060208201905081810360008301526125a1816122ae565b9050919050565b60006020820190506125bd60008301846122d1565b92915050565b60006060820190506125d860008301866122d1565b6125e56020830185611fe0565b81810360408301526125f78184612037565b9050949350505050565b600061260b61261c565b9050612617828261286e565b919050565b6000604051905090565b600067ffffffffffffffff821115612641576126406129a6565b5b61264a826129d5565b9050602081019050919050565b600067ffffffffffffffff821115612672576126716129a6565b5b61267b826129d5565b9050602081019050919050565b600081519050919050565b600081519050919050565b600082825260208201905092915050565b600082825260208201905092915050565b600081905092915050565b60006126d6826127f0565b91506126e1836127f0565b9250827fffffffffffffffffffffffffffffffffffffffffffffffffffffffffffffffff0382111561271657612715612919565b5b828201905092915050565b600061272c826127f0565b9150612737836127f0565b92508261274757612746612948565b5b828204905092915050565b600061275d826127f0565b9150612768836127f0565b92508282101561277b5761277a612919565b5b828203905092915050565b6000612791826127d0565b9050919050565b60008115159050919050565b60007fffffffff0000000000000000000000000000000000000000000000000000000082169050919050565b600073ffffffffffffffffffffffffffffffffffffffff82169050919050565b6000819050919050565b82818337600083830152505050565b60005b8381101561282757808201518184015260208101905061280c565b83811115612836576000848401525b50505050565b6000600282049050600182168061285457607f821691505b6020821081141561286857612867612977565b5b50919050565b612877826129d5565b810181811067ffffffffffffffff82111715612896576128956129a6565b5b80604052505050565b60006128aa826127f0565b91507fffffffffffffffffffffffffffffffffffffffffffffffffffffffffffffffff8214156128dd576128dc612919565b5b600182019050919050565b60006128f3826127f0565b91506128fe836127f0565b92508261290e5761290d612948565b5b828206905092915050565b7f4e487b7100000000000000000000000000000000000000000000000000000000600052601160045260246000fd5b7f4e487b7100000000000000000000000000000000000000000000000000000000600052601260045260246000fd5b7f4e487b7100000000000000000000000000000000000000000000000000000000600052602260045260246000fd5b7f4e487b7100000000000000000000000000000000000000000000000000000000600052604160045260246000fd5b6000601f19601f8301169050919050565b7f4552433732313a207472616e7366657220746f206e6f6e20455243373231526560008201527f63656976657220696d706c656d656e7465720000000000000000000000000000602082015250565b7f4552433732313a20746f6b656e20616c7265616479206d696e74656400000000600082015250565b7f4552433732313a207472616e7366657220746f20746865207a65726f2061646460008201527f7265737300000000000000000000000000000000000000000000000000000000602082015250565b7f4552433732313a20617070726f766520746f2063616c6c657200000000000000600082015250565b7f4552433732313a206f70657261746f7220717565727920666f72206e6f6e657860008201527f697374656e7420746f6b656e0000000000000000000000000000000000000000602082015250565b7f4552433732313a20617070726f76652063616c6c6572206973206e6f74206f7760008201527f6e6572206e6f7220617070726f76656420666f7220616c6c0000000000000000602082015250565b7f4552433732313a2062616c616e636520717565727920666f7220746865207a6560008201527f726f206164647265737300000000000000000000000000000000000000000000602082015250565b7f4552433732313a206f776e657220717565727920666f72206e6f6e657869737460008201527f656e7420746f6b656e0000000000000000000000000000000000000000000000602082015250565b7f45524337323155524953746f726167653a2055524920736574206f66206e6f6e60008201527f6578697374656e7420746f6b656e000000000000000000000000000000000000602082015250565b7f4552433732313a206d696e7420746f20746865207a65726f2061646472657373600082015250565b7f45524337323155524953746f726167653a2055524920717565727920666f722060008201527f6e6f6e6578697374656e7420746f6b656e000000000000000000000000000000602082015250565b7f4552433732313a20617070726f76656420717565727920666f72206e6f6e657860008201527f697374656e7420746f6b656e0000000000000000000000000000000000000000602082015250565b7f4552433732313a207472616e73666572206f6620746f6b656e2074686174206960008201527f73206e6f74206f776e0000000000000000000000000000000000000000000000602082015250565b7f4552433732314d657461646174613a2055524920717565727920666f72206e6f60008201527f6e6578697374656e7420746f6b656e0000000000000000000000000000000000602082015250565b7f4552433732313a20617070726f76616c20746f2063757272656e74206f776e6560008201527f7200000000000000000000000000000000000000000000000000000000000000602082015250565b7f4552433732313a207472616e736665722063616c6c6572206973206e6f74206f60008201527f776e6572206e6f7220617070726f766564000000000000000000000000000000602082015250565b612e6d81612786565b8114612e7857600080fd5b50565b612e8481612798565b8114612e8f57600080fd5b50565b612e9b816127a4565b8114612ea657600080fd5b50565b612eb2816127f0565b8114612ebd57600080fd5b5056fea26469706673582212201b668c83678852e01dee77af852427e1a906ef0ff887ccfe79fb657338d7bd4864736f6c63430008030033",
	"linkReferences": {},
	"deployedLinkReferences": {}
}