{
  "_format": "hh-sol-artifact-1",
  "contractName": "NFT",
  "sourceName": "contracts/NFT.sol",
  "abi": [
    {
      "inputs": [
        {
          "internalType": "address",
          "name": "marketplaceAddress",
          "type": "address"
        }
      ],
      "stateMutability": "nonpayable",
      "type": "constructor"
    },
    {
      "anonymous": false,
      "inputs": [
        {
          "indexed": true,
          "internalType": "address",
          "name": "owner",
          "type": "address"
        },
        {
          "indexed": true,
          "internalType": "address",
          "name": "approved",
          "type": "address"
        },
        {
          "indexed": true,
          "internalType": "uint256",
          "name": "tokenId",
          "type": "uint256"
        }
      ],
      "name": "Approval",
      "type": "event"
    },
    {
      "anonymous": false,
      "inputs": [
        {
          "indexed": true,
          "internalType": "address",
          "name": "owner",
          "type": "address"
        },
        {
          "indexed": true,
          "internalType": "address",
          "name": "operator",
          "type": "address"
        },
        {
          "indexed": false,
          "internalType": "bool",
          "name": "approved",
          "type": "bool"
        }
      ],
      "name": "ApprovalForAll",
      "type": "event"
    },
    {
      "anonymous": false,
      "inputs": [
        {
          "indexed": true,
          "internalType": "address",
          "name": "from",
          "type": "address"
        },
        {
          "indexed": true,
          "internalType": "address",
          "name": "to",
          "type": "address"
        },
        {
          "indexed": true,
          "internalType": "uint256",
          "name": "tokenId",
          "type": "uint256"
        }
      ],
      "name": "Transfer",
      "type": "event"
    },
    {
      "inputs": [
        {
          "internalType": "address",
          "name": "to",
          "type": "address"
        },
        {
          "internalType": "uint256",
          "name": "tokenId",
          "type": "uint256"
        }
      ],
      "name": "approve",
      "outputs": [],
      "stateMutability": "nonpayable",
      "type": "function"
    },
    {
      "inputs": [
        {
          "internalType": "address",
          "name": "owner",
          "type": "address"
        }
      ],
      "name": "balanceOf",
      "outputs": [
        {
          "internalType": "uint256",
          "name": "",
          "type": "uint256"
        }
      ],
      "stateMutability": "view",
      "type": "function"
    },
    {
      "inputs": [],
      "name": "collectionName",
      "outputs": [
        {
          "internalType": "string",
          "name": "",
          "type": "string"
        }
      ],
      "stateMutability": "view",
      "type": "function"
    },
    {
      "inputs": [],
      "name": "collectionSymbol",
      "outputs": [
        {
          "internalType": "string",
          "name": "",
          "type": "string"
        }
      ],
      "stateMutability": "view",
      "type": "function"
    },
    {
      "inputs": [
        {
          "internalType": "string",
          "name": "tokenURI",
          "type": "string"
        }
      ],
      "name": "createToken",
      "outputs": [
        {
          "internalType": "uint256",
          "name": "",
          "type": "uint256"
        }
      ],
      "stateMutability": "nonpayable",
      "type": "function"
    },
    {
      "inputs": [
        {
          "internalType": "uint256",
          "name": "tokenId",
          "type": "uint256"
        }
      ],
      "name": "getApproved",
      "outputs": [
        {
          "internalType": "address",
          "name": "",
          "type": "address"
        }
      ],
      "stateMutability": "view",
      "type": "function"
    },
    {
      "inputs": [
        {
          "internalType": "address",
          "name": "owner",
          "type": "address"
        },
        {
          "internalType": "address",
          "name": "operator",
          "type": "address"
        }
      ],
      "name": "isApprovedForAll",
      "outputs": [
        {
          "internalType": "bool",
          "name": "",
          "type": "bool"
        }
      ],
      "stateMutability": "view",
      "type": "function"
    },
    {
      "inputs": [],
      "name": "name",
      "outputs": [
        {
          "internalType": "string",
          "name": "",
          "type": "string"
        }
      ],
      "stateMutability": "view",
      "type": "function"
    },
    {
      "inputs": [
        {
          "internalType": "uint256",
          "name": "tokenId",
          "type": "uint256"
        }
      ],
      "name": "ownerOf",
      "outputs": [
        {
          "internalType": "address",
          "name": "",
          "type": "address"
        }
      ],
      "stateMutability": "view",
      "type": "function"
    },
    {
      "inputs": [
        {
          "internalType": "address",
          "name": "from",
          "type": "address"
        },
        {
          "internalType": "address",
          "name": "to",
          "type": "address"
        },
        {
          "internalType": "uint256",
          "name": "tokenId",
          "type": "uint256"
        }
      ],
      "name": "safeTransferFrom",
      "outputs": [],
      "stateMutability": "nonpayable",
      "type": "function"
    },
    {
      "inputs": [
        {
          "internalType": "address",
          "name": "from",
          "type": "address"
        },
        {
          "internalType": "address",
          "name": "to",
          "type": "address"
        },
        {
          "internalType": "uint256",
          "name": "tokenId",
          "type": "uint256"
        },
        {
          "internalType": "bytes",
          "name": "_data",
          "type": "bytes"
        }
      ],
      "name": "safeTransferFrom",
      "outputs": [],
      "stateMutability": "nonpayable",
      "type": "function"
    },
    {
      "inputs": [
        {
          "internalType": "address",
          "name": "operator",
          "type": "address"
        },
        {
          "internalType": "bool",
          "name": "approved",
          "type": "bool"
        }
      ],
      "name": "setApprovalForAll",
      "outputs": [],
      "stateMutability": "nonpayable",
      "type": "function"
    },
    {
      "inputs": [
        {
          "internalType": "bytes4",
          "name": "interfaceId",
          "type": "bytes4"
        }
      ],
      "name": "supportsInterface",
      "outputs": [
        {
          "internalType": "bool",
          "name": "",
          "type": "bool"
        }
      ],
      "stateMutability": "view",
      "type": "function"
    },
    {
      "inputs": [],
      "name": "symbol",
      "outputs": [
        {
          "internalType": "string",
          "name": "",
          "type": "string"
        }
      ],
      "stateMutability": "view",
      "type": "function"
    },
    {
      "inputs": [
        {
          "internalType": "uint256",
          "name": "tokenId",
          "type": "uint256"
        }
      ],
      "name": "tokenURI",
      "outputs": [
        {
          "internalType": "string",
          "name": "",
          "type": "string"
        }
      ],
      "stateMutability": "view",
      "type": "function"
    },
    {
      "inputs": [
        {
          "internalType": "address",
          "name": "from",
          "type": "address"
        },
        {
          "internalType": "address",
          "name": "to",
          "type": "address"
        },
        {
          "internalType": "uint256",
          "name": "tokenId",
          "type": "uint256"
        }
      ],
      "name": "transferFrom",
      "outputs": [],
      "stateMutability": "nonpayable",
      "type": "function"
    }
  ],
  "bytecode": "0x60806040523480156200001157600080fd5b506040516200314e3803806200314e83398181016040528101906200003791906200036a565b6040518060400160405280600b81526020017f5468696e6b7273204e46540000000000000000000000000000000000000000008152506040518060400160405280600581526020017f5448494e4b0000000000000000000000000000000000000000000000000000008152508160009080519060200190620000bb929190620002a3565b508060019080519060200190620000d4929190620002a3565b50505080600860006101000a81548173ffffffffffffffffffffffffffffffffffffffff021916908373ffffffffffffffffffffffffffffffffffffffff160217905550620001286200016f60201b60201c565b600990805190602001906200013f929190620002a3565b50620001506200020960201b60201c565b600a908051906020019062000167929190620002a3565b505062000449565b6060600080546200018090620003ca565b80601f0160208091040260200160405190810160405280929190818152602001828054620001ae90620003ca565b8015620001ff5780601f10620001d357610100808354040283529160200191620001ff565b820191906000526020600020905b815481529060010190602001808311620001e157829003601f168201915b5050505050905090565b6060600180546200021a90620003ca565b80601f01602080910402602001604051908101604052809291908181526020018280546200024890620003ca565b8015620002995780601f106200026d5761010080835404028352916020019162000299565b820191906000526020600020905b8154815290600101906020018083116200027b57829003601f168201915b5050505050905090565b828054620002b190620003ca565b90600052602060002090601f016020900481019282620002d5576000855562000321565b82601f10620002f057805160ff191683800117855562000321565b8280016001018555821562000321579182015b828111156200032057825182559160200191906001019062000303565b5b50905062000330919062000334565b5090565b5b808211156200034f57600081600090555060010162000335565b5090565b60008151905062000364816200042f565b92915050565b6000602082840312156200037d57600080fd5b60006200038d8482850162000353565b91505092915050565b6000620003a382620003aa565b9050919050565b600073ffffffffffffffffffffffffffffffffffffffff82169050919050565b60006002820490506001821680620003e357607f821691505b60208210811415620003fa57620003f962000400565b5b50919050565b7f4e487b7100000000000000000000000000000000000000000000000000000000600052602260045260246000fd5b6200043a8162000396565b81146200044657600080fd5b50565b612cf580620004596000396000f3fe608060405234801561001057600080fd5b50600436106101005760003560e01c80636352211e11610097578063b88d4fde11610066578063b88d4fde146102bf578063c87b56dd146102db578063e5326ab11461030b578063e985e9c51461032957610100565b80636352211e1461022557806370a082311461025557806395d89b4114610285578063a22cb465146102a357610100565b806323b872dd116100d357806323b872dd1461019f5780632f39352a146101bb57806342842e0e146101d957806345576f94146101f557610100565b806301ffc9a71461010557806306fdde0314610135578063081812fc14610153578063095ea7b314610183575b600080fd5b61011f600480360381019061011a9190611d61565b610359565b60405161012c91906121a8565b60405180910390f35b61013d61043b565b60405161014a91906121c3565b60405180910390f35b61016d60048036038101906101689190611df4565b6104cd565b60405161017a9190612141565b60405180910390f35b61019d60048036038101906101989190611d25565b610552565b005b6101b960048036038101906101b49190611c1f565b61066a565b005b6101c36106ca565b6040516101d091906121c3565b60405180910390f35b6101f360048036038101906101ee9190611c1f565b610758565b005b61020f600480360381019061020a9190611db3565b610778565b60405161021c91906123e5565b60405180910390f35b61023f600480360381019061023a9190611df4565b6107dc565b60405161024c9190612141565b60405180910390f35b61026f600480360381019061026a9190611bba565b61088e565b60405161027c91906123e5565b60405180910390f35b61028d610946565b60405161029a91906121c3565b60405180910390f35b6102bd60048036038101906102b89190611ce9565b6109d8565b005b6102d960048036038101906102d49190611c6e565b6109ee565b005b6102f560048036038101906102f09190611df4565b610a50565b60405161030291906121c3565b60405180910390f35b610313610ba2565b60405161032091906121c3565b60405180910390f35b610343600480360381019061033e9190611be3565b610c30565b60405161035091906121a8565b60405180910390f35b60007f80ac58cd000000000000000000000000000000000000000000000000000000007bffffffffffffffffffffffffffffffffffffffffffffffffffffffff1916827bffffffffffffffffffffffffffffffffffffffffffffffffffffffff1916148061042457507f5b5e139f000000000000000000000000000000000000000000000000000000007bffffffffffffffffffffffffffffffffffffffffffffffffffffffff1916827bffffffffffffffffffffffffffffffffffffffffffffffffffffffff1916145b80610434575061043382610cc4565b5b9050919050565b60606000805461044a9061263b565b80601f01602080910402602001604051908101604052809291908181526020018280546104769061263b565b80156104c35780601f10610498576101008083540402835291602001916104c3565b820191906000526020600020905b8154815290600101906020018083116104a657829003601f168201915b5050505050905090565b60006104d882610d2e565b610517576040517f08c379a000000000000000000000000000000000000000000000000000000000815260040161050e90612345565b60405180910390fd5b6004600083815260200190815260200160002060009054906101000a900473ffffffffffffffffffffffffffffffffffffffff169050919050565b600061055d826107dc565b90508073ffffffffffffffffffffffffffffffffffffffff168373ffffffffffffffffffffffffffffffffffffffff1614156105ce576040517f08c379a00000000000000000000000000000000000000000000000000000000081526004016105c5906123a5565b60405180910390fd5b8073ffffffffffffffffffffffffffffffffffffffff166105ed610d9a565b73ffffffffffffffffffffffffffffffffffffffff16148061061c575061061b81610616610d9a565b610c30565b5b61065b576040517f08c379a000000000000000000000000000000000000000000000000000000000815260040161065290612285565b60405180910390fd5b6106658383610da2565b505050565b61067b610675610d9a565b82610e5b565b6106ba576040517f08c379a00000000000000000000000000000000000000000000000000000000081526004016106b1906123c5565b60405180910390fd5b6106c5838383610f39565b505050565b600a80546106d79061263b565b80601f01602080910402602001604051908101604052809291908181526020018280546107039061263b565b80156107505780601f1061072557610100808354040283529160200191610750565b820191906000526020600020905b81548152906001019060200180831161073357829003601f168201915b505050505081565b610773838383604051806020016040528060008152506109ee565b505050565b60006107846007611195565b600061079060076111ab565b905061079c33826111b9565b6107a68184611387565b6107d3600860009054906101000a900473ffffffffffffffffffffffffffffffffffffffff1660016109d8565b80915050919050565b6000806002600084815260200190815260200160002060009054906101000a900473ffffffffffffffffffffffffffffffffffffffff169050600073ffffffffffffffffffffffffffffffffffffffff168173ffffffffffffffffffffffffffffffffffffffff161415610885576040517f08c379a000000000000000000000000000000000000000000000000000000000815260040161087c906122c5565b60405180910390fd5b80915050919050565b60008073ffffffffffffffffffffffffffffffffffffffff168273ffffffffffffffffffffffffffffffffffffffff1614156108ff576040517f08c379a00000000000000000000000000000000000000000000000000000000081526004016108f6906122a5565b60405180910390fd5b600360008373ffffffffffffffffffffffffffffffffffffffff1673ffffffffffffffffffffffffffffffffffffffff168152602001908152602001600020549050919050565b6060600180546109559061263b565b80601f01602080910402602001604051908101604052809291908181526020018280546109819061263b565b80156109ce5780601f106109a3576101008083540402835291602001916109ce565b820191906000526020600020905b8154815290600101906020018083116109b157829003601f168201915b5050505050905090565b6109ea6109e3610d9a565b83836113fb565b5050565b6109ff6109f9610d9a565b83610e5b565b610a3e576040517f08c379a0000000000000000000000000000000000000000000000000000000008152600401610a35906123c5565b60405180910390fd5b610a4a84848484611568565b50505050565b6060610a5b82610d2e565b610a9a576040517f08c379a0000000000000000000000000000000000000000000000000000000008152600401610a9190612325565b60405180910390fd5b6000600660008481526020019081526020016000208054610aba9061263b565b80601f0160208091040260200160405190810160405280929190818152602001828054610ae69061263b565b8015610b335780601f10610b0857610100808354040283529160200191610b33565b820191906000526020600020905b815481529060010190602001808311610b1657829003601f168201915b505050505090506000610b446115c4565b9050600081511415610b5a578192505050610b9d565b600082511115610b8f578082604051602001610b7792919061211d565b60405160208183030381529060405292505050610b9d565b610b98846115db565b925050505b919050565b60098054610baf9061263b565b80601f0160208091040260200160405190810160405280929190818152602001828054610bdb9061263b565b8015610c285780601f10610bfd57610100808354040283529160200191610c28565b820191906000526020600020905b815481529060010190602001808311610c0b57829003601f168201915b505050505081565b6000600560008473ffffffffffffffffffffffffffffffffffffffff1673ffffffffffffffffffffffffffffffffffffffff16815260200190815260200160002060008373ffffffffffffffffffffffffffffffffffffffff1673ffffffffffffffffffffffffffffffffffffffff16815260200190815260200160002060009054906101000a900460ff16905092915050565b60007f01ffc9a7000000000000000000000000000000000000000000000000000000007bffffffffffffffffffffffffffffffffffffffffffffffffffffffff1916827bffffffffffffffffffffffffffffffffffffffffffffffffffffffff1916149050919050565b60008073ffffffffffffffffffffffffffffffffffffffff166002600084815260200190815260200160002060009054906101000a900473ffffffffffffffffffffffffffffffffffffffff1673ffffffffffffffffffffffffffffffffffffffff1614159050919050565b600033905090565b816004600083815260200190815260200160002060006101000a81548173ffffffffffffffffffffffffffffffffffffffff021916908373ffffffffffffffffffffffffffffffffffffffff160217905550808273ffffffffffffffffffffffffffffffffffffffff16610e15836107dc565b73ffffffffffffffffffffffffffffffffffffffff167f8c5be1e5ebec7d5bd14f71427d1e84f3dd0314c0f7b2291e5b200ac8c7c3b92560405160405180910390a45050565b6000610e6682610d2e565b610ea5576040517f08c379a0000000000000000000000000000000000000000000000000000000008152600401610e9c90612265565b60405180910390fd5b6000610eb0836107dc565b90508073ffffffffffffffffffffffffffffffffffffffff168473ffffffffffffffffffffffffffffffffffffffff161480610f1f57508373ffffffffffffffffffffffffffffffffffffffff16610f07846104cd565b73ffffffffffffffffffffffffffffffffffffffff16145b80610f305750610f2f8185610c30565b5b91505092915050565b8273ffffffffffffffffffffffffffffffffffffffff16610f59826107dc565b73ffffffffffffffffffffffffffffffffffffffff1614610faf576040517f08c379a0000000000000000000000000000000000000000000000000000000008152600401610fa690612365565b60405180910390fd5b600073ffffffffffffffffffffffffffffffffffffffff168273ffffffffffffffffffffffffffffffffffffffff16141561101f576040517f08c379a000000000000000000000000000000000000000000000000000000000815260040161101690612225565b60405180910390fd5b61102a838383611682565b611035600082610da2565b6001600360008573ffffffffffffffffffffffffffffffffffffffff1673ffffffffffffffffffffffffffffffffffffffff16815260200190815260200160002060008282546110859190612551565b925050819055506001600360008473ffffffffffffffffffffffffffffffffffffffff1673ffffffffffffffffffffffffffffffffffffffff16815260200190815260200160002060008282546110dc91906124ca565b92505081905550816002600083815260200190815260200160002060006101000a81548173ffffffffffffffffffffffffffffffffffffffff021916908373ffffffffffffffffffffffffffffffffffffffff160217905550808273ffffffffffffffffffffffffffffffffffffffff168473ffffffffffffffffffffffffffffffffffffffff167fddf252ad1be2c89b69c2b068fc378daa952ba7f163c4a11628f55a4df523b3ef60405160405180910390a4505050565b6001816000016000828254019250508190555050565b600081600001549050919050565b600073ffffffffffffffffffffffffffffffffffffffff168273ffffffffffffffffffffffffffffffffffffffff161415611229576040517f08c379a000000000000000000000000000000000000000000000000000000000815260040161122090612305565b60405180910390fd5b61123281610d2e565b15611272576040517f08c379a000000000000000000000000000000000000000000000000000000000815260040161126990612205565b60405180910390fd5b61127e60008383611682565b6001600360008473ffffffffffffffffffffffffffffffffffffffff1673ffffffffffffffffffffffffffffffffffffffff16815260200190815260200160002060008282546112ce91906124ca565b92505081905550816002600083815260200190815260200160002060006101000a81548173ffffffffffffffffffffffffffffffffffffffff021916908373ffffffffffffffffffffffffffffffffffffffff160217905550808273ffffffffffffffffffffffffffffffffffffffff16600073ffffffffffffffffffffffffffffffffffffffff167fddf252ad1be2c89b69c2b068fc378daa952ba7f163c4a11628f55a4df523b3ef60405160405180910390a45050565b61139082610d2e565b6113cf576040517f08c379a00000000000000000000000000000000000000000000000000000000081526004016113c6906122e5565b60405180910390fd5b806006600084815260200190815260200160002090805190602001906113f69291906119de565b505050565b8173ffffffffffffffffffffffffffffffffffffffff168373ffffffffffffffffffffffffffffffffffffffff16141561146a576040517f08c379a000000000000000000000000000000000000000000000000000000000815260040161146190612245565b60405180910390fd5b80600560008573ffffffffffffffffffffffffffffffffffffffff1673ffffffffffffffffffffffffffffffffffffffff16815260200190815260200160002060008473ffffffffffffffffffffffffffffffffffffffff1673ffffffffffffffffffffffffffffffffffffffff16815260200190815260200160002060006101000a81548160ff0219169083151502179055508173ffffffffffffffffffffffffffffffffffffffff168373ffffffffffffffffffffffffffffffffffffffff167f17307eab39ab6107e8899845ad3d59bd9653f200f220920489ca2b5937696c318360405161155b91906121a8565b60405180910390a3505050565b611573848484610f39565b61157f84848484611687565b6115be576040517f08c379a00000000000000000000000000000000000000000000000000000000081526004016115b5906121e5565b60405180910390fd5b50505050565b606060405180602001604052806000815250905090565b60606115e682610d2e565b611625576040517f08c379a000000000000000000000000000000000000000000000000000000000815260040161161c90612385565b60405180910390fd5b600061162f6115c4565b9050600081511161164f576040518060200160405280600081525061167a565b806116598461181e565b60405160200161166a92919061211d565b6040516020818303038152906040525b915050919050565b505050565b60006116a88473ffffffffffffffffffffffffffffffffffffffff166119cb565b15611811578373ffffffffffffffffffffffffffffffffffffffff1663150b7a026116d1610d9a565b8786866040518563ffffffff1660e01b81526004016116f3949392919061215c565b602060405180830381600087803b15801561170d57600080fd5b505af192505050801561173e57506040513d601f19601f8201168201806040525081019061173b9190611d8a565b60015b6117c1573d806000811461176e576040519150601f19603f3d011682016040523d82523d6000602084013e611773565b606091505b506000815114156117b9576040517f08c379a00000000000000000000000000000000000000000000000000000000081526004016117b0906121e5565b60405180910390fd5b805181602001fd5b63150b7a0260e01b7bffffffffffffffffffffffffffffffffffffffffffffffffffffffff1916817bffffffffffffffffffffffffffffffffffffffffffffffffffffffff191614915050611816565b600190505b949350505050565b60606000821415611866576040518060400160405280600181526020017f300000000000000000000000000000000000000000000000000000000000000081525090506119c6565b600082905060005b600082146118985780806118819061269e565b915050600a826118919190612520565b915061186e565b60008167ffffffffffffffff8111156118da577f4e487b7100000000000000000000000000000000000000000000000000000000600052604160045260246000fd5b6040519080825280601f01601f19166020018201604052801561190c5781602001600182028036833780820191505090505b5090505b600085146119bf576001826119259190612551565b9150600a8561193491906126e7565b603061194091906124ca565b60f81b81838151811061197c577f4e487b7100000000000000000000000000000000000000000000000000000000600052603260045260246000fd5b60200101907effffffffffffffffffffffffffffffffffffffffffffffffffffffffffffff1916908160001a905350600a856119b89190612520565b9450611910565b8093505050505b919050565b600080823b905060008111915050919050565b8280546119ea9061263b565b90600052602060002090601f016020900481019282611a0c5760008555611a53565b82601f10611a2557805160ff1916838001178555611a53565b82800160010185558215611a53579182015b82811115611a52578251825591602001919060010190611a37565b5b509050611a609190611a64565b5090565b5b80821115611a7d576000816000905550600101611a65565b5090565b6000611a94611a8f84612425565b612400565b905082815260208101848484011115611aac57600080fd5b611ab78482856125f9565b509392505050565b6000611ad2611acd84612456565b612400565b905082815260208101848484011115611aea57600080fd5b611af58482856125f9565b509392505050565b600081359050611b0c81612c63565b92915050565b600081359050611b2181612c7a565b92915050565b600081359050611b3681612c91565b92915050565b600081519050611b4b81612c91565b92915050565b600082601f830112611b6257600080fd5b8135611b72848260208601611a81565b91505092915050565b600082601f830112611b8c57600080fd5b8135611b9c848260208601611abf565b91505092915050565b600081359050611bb481612ca8565b92915050565b600060208284031215611bcc57600080fd5b6000611bda84828501611afd565b91505092915050565b60008060408385031215611bf657600080fd5b6000611c0485828601611afd565b9250506020611c1585828601611afd565b9150509250929050565b600080600060608486031215611c3457600080fd5b6000611c4286828701611afd565b9350506020611c5386828701611afd565b9250506040611c6486828701611ba5565b9150509250925092565b60008060008060808587031215611c8457600080fd5b6000611c9287828801611afd565b9450506020611ca387828801611afd565b9350506040611cb487828801611ba5565b925050606085013567ffffffffffffffff811115611cd157600080fd5b611cdd87828801611b51565b91505092959194509250565b60008060408385031215611cfc57600080fd5b6000611d0a85828601611afd565b9250506020611d1b85828601611b12565b9150509250929050565b60008060408385031215611d3857600080fd5b6000611d4685828601611afd565b9250506020611d5785828601611ba5565b9150509250929050565b600060208284031215611d7357600080fd5b6000611d8184828501611b27565b91505092915050565b600060208284031215611d9c57600080fd5b6000611daa84828501611b3c565b91505092915050565b600060208284031215611dc557600080fd5b600082013567ffffffffffffffff811115611ddf57600080fd5b611deb84828501611b7b565b91505092915050565b600060208284031215611e0657600080fd5b6000611e1484828501611ba5565b91505092915050565b611e2681612585565b82525050565b611e3581612597565b82525050565b6000611e4682612487565b611e50818561249d565b9350611e60818560208601612608565b611e69816127d4565b840191505092915050565b6000611e7f82612492565b611e8981856124ae565b9350611e99818560208601612608565b611ea2816127d4565b840191505092915050565b6000611eb882612492565b611ec281856124bf565b9350611ed2818560208601612608565b80840191505092915050565b6000611eeb6032836124ae565b9150611ef6826127e5565b604082019050919050565b6000611f0e601c836124ae565b9150611f1982612834565b602082019050919050565b6000611f316024836124ae565b9150611f3c8261285d565b604082019050919050565b6000611f546019836124ae565b9150611f5f826128ac565b602082019050919050565b6000611f77602c836124ae565b9150611f82826128d5565b604082019050919050565b6000611f9a6038836124ae565b9150611fa582612924565b604082019050919050565b6000611fbd602a836124ae565b9150611fc882612973565b604082019050919050565b6000611fe06029836124ae565b9150611feb826129c2565b604082019050919050565b6000612003602e836124ae565b915061200e82612a11565b604082019050919050565b60006120266020836124ae565b915061203182612a60565b602082019050919050565b60006120496031836124ae565b915061205482612a89565b604082019050919050565b600061206c602c836124ae565b915061207782612ad8565b604082019050919050565b600061208f6029836124ae565b915061209a82612b27565b604082019050919050565b60006120b2602f836124ae565b91506120bd82612b76565b604082019050919050565b60006120d56021836124ae565b91506120e082612bc5565b604082019050919050565b60006120f86031836124ae565b915061210382612c14565b604082019050919050565b612117816125ef565b82525050565b60006121298285611ead565b91506121358284611ead565b91508190509392505050565b60006020820190506121566000830184611e1d565b92915050565b60006080820190506121716000830187611e1d565b61217e6020830186611e1d565b61218b604083018561210e565b818103606083015261219d8184611e3b565b905095945050505050565b60006020820190506121bd6000830184611e2c565b92915050565b600060208201905081810360008301526121dd8184611e74565b905092915050565b600060208201905081810360008301526121fe81611ede565b9050919050565b6000602082019050818103600083015261221e81611f01565b9050919050565b6000602082019050818103600083015261223e81611f24565b9050919050565b6000602082019050818103600083015261225e81611f47565b9050919050565b6000602082019050818103600083015261227e81611f6a565b9050919050565b6000602082019050818103600083015261229e81611f8d565b9050919050565b600060208201905081810360008301526122be81611fb0565b9050919050565b600060208201905081810360008301526122de81611fd3565b9050919050565b600060208201905081810360008301526122fe81611ff6565b9050919050565b6000602082019050818103600083015261231e81612019565b9050919050565b6000602082019050818103600083015261233e8161203c565b9050919050565b6000602082019050818103600083015261235e8161205f565b9050919050565b6000602082019050818103600083015261237e81612082565b9050919050565b6000602082019050818103600083015261239e816120a5565b9050919050565b600060208201905081810360008301526123be816120c8565b9050919050565b600060208201905081810360008301526123de816120eb565b9050919050565b60006020820190506123fa600083018461210e565b92915050565b600061240a61241b565b9050612416828261266d565b919050565b6000604051905090565b600067ffffffffffffffff8211156124405761243f6127a5565b5b612449826127d4565b9050602081019050919050565b600067ffffffffffffffff821115612471576124706127a5565b5b61247a826127d4565b9050602081019050919050565b600081519050919050565b600081519050919050565b600082825260208201905092915050565b600082825260208201905092915050565b600081905092915050565b60006124d5826125ef565b91506124e0836125ef565b9250827fffffffffffffffffffffffffffffffffffffffffffffffffffffffffffffffff0382111561251557612514612718565b5b828201905092915050565b600061252b826125ef565b9150612536836125ef565b92508261254657612545612747565b5b828204905092915050565b600061255c826125ef565b9150612567836125ef565b92508282101561257a57612579612718565b5b828203905092915050565b6000612590826125cf565b9050919050565b60008115159050919050565b60007fffffffff0000000000000000000000000000000000000000000000000000000082169050919050565b600073ffffffffffffffffffffffffffffffffffffffff82169050919050565b6000819050919050565b82818337600083830152505050565b60005b8381101561262657808201518184015260208101905061260b565b83811115612635576000848401525b50505050565b6000600282049050600182168061265357607f821691505b6020821081141561266757612666612776565b5b50919050565b612676826127d4565b810181811067ffffffffffffffff82111715612695576126946127a5565b5b80604052505050565b60006126a9826125ef565b91507fffffffffffffffffffffffffffffffffffffffffffffffffffffffffffffffff8214156126dc576126db612718565b5b600182019050919050565b60006126f2826125ef565b91506126fd836125ef565b92508261270d5761270c612747565b5b828206905092915050565b7f4e487b7100000000000000000000000000000000000000000000000000000000600052601160045260246000fd5b7f4e487b7100000000000000000000000000000000000000000000000000000000600052601260045260246000fd5b7f4e487b7100000000000000000000000000000000000000000000000000000000600052602260045260246000fd5b7f4e487b7100000000000000000000000000000000000000000000000000000000600052604160045260246000fd5b6000601f19601f8301169050919050565b7f4552433732313a207472616e7366657220746f206e6f6e20455243373231526560008201527f63656976657220696d706c656d656e7465720000000000000000000000000000602082015250565b7f4552433732313a20746f6b656e20616c7265616479206d696e74656400000000600082015250565b7f4552433732313a207472616e7366657220746f20746865207a65726f2061646460008201527f7265737300000000000000000000000000000000000000000000000000000000602082015250565b7f4552433732313a20617070726f766520746f2063616c6c657200000000000000600082015250565b7f4552433732313a206f70657261746f7220717565727920666f72206e6f6e657860008201527f697374656e7420746f6b656e0000000000000000000000000000000000000000602082015250565b7f4552433732313a20617070726f76652063616c6c6572206973206e6f74206f7760008201527f6e6572206e6f7220617070726f76656420666f7220616c6c0000000000000000602082015250565b7f4552433732313a2062616c616e636520717565727920666f7220746865207a6560008201527f726f206164647265737300000000000000000000000000000000000000000000602082015250565b7f4552433732313a206f776e657220717565727920666f72206e6f6e657869737460008201527f656e7420746f6b656e0000000000000000000000000000000000000000000000602082015250565b7f45524337323155524953746f726167653a2055524920736574206f66206e6f6e60008201527f6578697374656e7420746f6b656e000000000000000000000000000000000000602082015250565b7f4552433732313a206d696e7420746f20746865207a65726f2061646472657373600082015250565b7f45524337323155524953746f726167653a2055524920717565727920666f722060008201527f6e6f6e6578697374656e7420746f6b656e000000000000000000000000000000602082015250565b7f4552433732313a20617070726f76656420717565727920666f72206e6f6e657860008201527f697374656e7420746f6b656e0000000000000000000000000000000000000000602082015250565b7f4552433732313a207472616e73666572206f6620746f6b656e2074686174206960008201527f73206e6f74206f776e0000000000000000000000000000000000000000000000602082015250565b7f4552433732314d657461646174613a2055524920717565727920666f72206e6f60008201527f6e6578697374656e7420746f6b656e0000000000000000000000000000000000602082015250565b7f4552433732313a20617070726f76616c20746f2063757272656e74206f776e6560008201527f7200000000000000000000000000000000000000000000000000000000000000602082015250565b7f4552433732313a207472616e736665722063616c6c6572206973206e6f74206f60008201527f776e6572206e6f7220617070726f766564000000000000000000000000000000602082015250565b612c6c81612585565b8114612c7757600080fd5b50565b612c8381612597565b8114612c8e57600080fd5b50565b612c9a816125a3565b8114612ca557600080fd5b50565b612cb1816125ef565b8114612cbc57600080fd5b5056fea26469706673582212208a1a4d2dc1f8d896e97aae55ef6cbc7305707aa47956fb7ce1efd00465b0bbcd64736f6c63430008030033",
  "linkReferences": {},
  "deployedLinkReferences": {}
}