{
	"_format": "hh-sol-artifact-1",
	"contractName": "NFT",
	"sourceName": "contracts/NFT.sol",
	"abi": [
		{
			"inputs": [
				{
					"internalType": "address",
					"name": "marketplaceAddress",
					"type": "address"
				}
			],
			"stateMutability": "nonpayable",
			"type": "constructor"
		},
		{
			"anonymous": false,
			"inputs": [
				{
					"indexed": true,
					"internalType": "address",
					"name": "owner",
					"type": "address"
				},
				{
					"indexed": true,
					"internalType": "address",
					"name": "approved",
					"type": "address"
				},
				{
					"indexed": true,
					"internalType": "uint256",
					"name": "tokenId",
					"type": "uint256"
				}
			],
			"name": "Approval",
			"type": "event"
		},
		{
			"anonymous": false,
			"inputs": [
				{
					"indexed": true,
					"internalType": "address",
					"name": "owner",
					"type": "address"
				},
				{
					"indexed": true,
					"internalType": "address",
					"name": "operator",
					"type": "address"
				},
				{
					"indexed": false,
					"internalType": "bool",
					"name": "approved",
					"type": "bool"
				}
			],
			"name": "ApprovalForAll",
			"type": "event"
		},
		{
			"anonymous": false,
			"inputs": [
				{
					"indexed": true,
					"internalType": "address",
					"name": "from",
					"type": "address"
				},
				{
					"indexed": true,
					"internalType": "address",
					"name": "to",
					"type": "address"
				},
				{
					"indexed": true,
					"internalType": "uint256",
					"name": "tokenId",
					"type": "uint256"
				}
			],
			"name": "Transfer",
			"type": "event"
		},
		{
			"inputs": [
				{
					"internalType": "address",
					"name": "to",
					"type": "address"
				},
				{
					"internalType": "uint256",
					"name": "tokenId",
					"type": "uint256"
				}
			],
			"name": "approve",
			"outputs": [],
			"stateMutability": "nonpayable",
			"type": "function"
		},
		{
			"inputs": [
				{
					"internalType": "address",
					"name": "owner",
					"type": "address"
				}
			],
			"name": "balanceOf",
			"outputs": [
				{
					"internalType": "uint256",
					"name": "",
					"type": "uint256"
				}
			],
			"stateMutability": "view",
			"type": "function"
		},
		{
			"inputs": [],
			"name": "collectionName",
			"outputs": [
				{
					"internalType": "string",
					"name": "",
					"type": "string"
				}
			],
			"stateMutability": "view",
			"type": "function"
		},
		{
			"inputs": [],
			"name": "collectionSymbol",
			"outputs": [
				{
					"internalType": "string",
					"name": "",
					"type": "string"
				}
			],
			"stateMutability": "view",
			"type": "function"
		},
		{
			"inputs": [
				{
					"internalType": "string",
					"name": "tokenUri",
					"type": "string"
				}
			],
			"name": "createNFT",
			"outputs": [
				{
					"internalType": "uint256",
					"name": "",
					"type": "uint256"
				}
			],
			"stateMutability": "nonpayable",
			"type": "function"
		},
		{
			"inputs": [
				{
					"internalType": "uint256",
					"name": "tokenId",
					"type": "uint256"
				}
			],
			"name": "getApproved",
			"outputs": [
				{
					"internalType": "address",
					"name": "",
					"type": "address"
				}
			],
			"stateMutability": "view",
			"type": "function"
		},
		{
			"inputs": [],
			"name": "getMyNFT",
			"outputs": [
				{
					"components": [
						{
							"internalType": "uint256",
							"name": "tokenId",
							"type": "uint256"
						},
						{
							"internalType": "address",
							"name": "owner",
							"type": "address"
						},
						{
							"internalType": "string",
							"name": "tokenUri",
							"type": "string"
						}
					],
					"internalType": "struct NFT.nftItem[]",
					"name": "",
					"type": "tuple[]"
				}
			],
			"stateMutability": "view",
			"type": "function"
		},
		{
			"inputs": [
				{
					"internalType": "uint256",
					"name": "",
					"type": "uint256"
				}
			],
			"name": "idToNFTItems",
			"outputs": [
				{
					"internalType": "uint256",
					"name": "tokenId",
					"type": "uint256"
				},
				{
					"internalType": "address",
					"name": "owner",
					"type": "address"
				},
				{
					"internalType": "string",
					"name": "tokenUri",
					"type": "string"
				}
			],
			"stateMutability": "view",
			"type": "function"
		},
		{
			"inputs": [
				{
					"internalType": "address",
					"name": "owner",
					"type": "address"
				},
				{
					"internalType": "address",
					"name": "operator",
					"type": "address"
				}
			],
			"name": "isApprovedForAll",
			"outputs": [
				{
					"internalType": "bool",
					"name": "",
					"type": "bool"
				}
			],
			"stateMutability": "view",
			"type": "function"
		},
		{
			"inputs": [],
			"name": "name",
			"outputs": [
				{
					"internalType": "string",
					"name": "",
					"type": "string"
				}
			],
			"stateMutability": "view",
			"type": "function"
		},
		{
			"inputs": [
				{
					"internalType": "uint256",
					"name": "tokenId",
					"type": "uint256"
				}
			],
			"name": "ownerOf",
			"outputs": [
				{
					"internalType": "address",
					"name": "",
					"type": "address"
				}
			],
			"stateMutability": "view",
			"type": "function"
		},
		{
			"inputs": [
				{
					"internalType": "address",
					"name": "from",
					"type": "address"
				},
				{
					"internalType": "address",
					"name": "to",
					"type": "address"
				},
				{
					"internalType": "uint256",
					"name": "tokenId",
					"type": "uint256"
				}
			],
			"name": "safeTransferFrom",
			"outputs": [],
			"stateMutability": "nonpayable",
			"type": "function"
		},
		{
			"inputs": [
				{
					"internalType": "address",
					"name": "from",
					"type": "address"
				},
				{
					"internalType": "address",
					"name": "to",
					"type": "address"
				},
				{
					"internalType": "uint256",
					"name": "tokenId",
					"type": "uint256"
				},
				{
					"internalType": "bytes",
					"name": "_data",
					"type": "bytes"
				}
			],
			"name": "safeTransferFrom",
			"outputs": [],
			"stateMutability": "nonpayable",
			"type": "function"
		},
		{
			"inputs": [
				{
					"internalType": "address",
					"name": "operator",
					"type": "address"
				},
				{
					"internalType": "bool",
					"name": "approved",
					"type": "bool"
				}
			],
			"name": "setApprovalForAll",
			"outputs": [],
			"stateMutability": "nonpayable",
			"type": "function"
		},
		{
			"inputs": [
				{
					"internalType": "bytes4",
					"name": "interfaceId",
					"type": "bytes4"
				}
			],
			"name": "supportsInterface",
			"outputs": [
				{
					"internalType": "bool",
					"name": "",
					"type": "bool"
				}
			],
			"stateMutability": "view",
			"type": "function"
		},
		{
			"inputs": [],
			"name": "symbol",
			"outputs": [
				{
					"internalType": "string",
					"name": "",
					"type": "string"
				}
			],
			"stateMutability": "view",
			"type": "function"
		},
		{
			"inputs": [
				{
					"internalType": "uint256",
					"name": "tokenId",
					"type": "uint256"
				}
			],
			"name": "tokenURI",
			"outputs": [
				{
					"internalType": "string",
					"name": "",
					"type": "string"
				}
			],
			"stateMutability": "view",
			"type": "function"
		},
		{
			"inputs": [
				{
					"internalType": "address",
					"name": "from",
					"type": "address"
				},
				{
					"internalType": "address",
					"name": "to",
					"type": "address"
				},
				{
					"internalType": "uint256",
					"name": "tokenId",
					"type": "uint256"
				}
			],
			"name": "transferFrom",
			"outputs": [],
			"stateMutability": "nonpayable",
			"type": "function"
		}
	],
	"bytecode": "0x60806040523480156200001157600080fd5b50604051620038783803806200387883398181016040528101906200003791906200036a565b6040518060400160405280600b81526020017f5468696e6b7273204e46540000000000000000000000000000000000000000008152506040518060400160405280600581526020017f5448494e4b0000000000000000000000000000000000000000000000000000008152508160009080519060200190620000bb929190620002a3565b508060019080519060200190620000d4929190620002a3565b50505080600860006101000a81548173ffffffffffffffffffffffffffffffffffffffff021916908373ffffffffffffffffffffffffffffffffffffffff160217905550620001286200016f60201b60201c565b600990805190602001906200013f929190620002a3565b50620001506200020960201b60201c565b600a908051906020019062000167929190620002a3565b505062000449565b6060600080546200018090620003ca565b80601f0160208091040260200160405190810160405280929190818152602001828054620001ae90620003ca565b8015620001ff5780601f10620001d357610100808354040283529160200191620001ff565b820191906000526020600020905b815481529060010190602001808311620001e157829003601f168201915b5050505050905090565b6060600180546200021a90620003ca565b80601f01602080910402602001604051908101604052809291908181526020018280546200024890620003ca565b8015620002995780601f106200026d5761010080835404028352916020019162000299565b820191906000526020600020905b8154815290600101906020018083116200027b57829003601f168201915b5050505050905090565b828054620002b190620003ca565b90600052602060002090601f016020900481019282620002d5576000855562000321565b82601f10620002f057805160ff191683800117855562000321565b8280016001018555821562000321579182015b828111156200032057825182559160200191906001019062000303565b5b50905062000330919062000334565b5090565b5b808211156200034f57600081600090555060010162000335565b5090565b60008151905062000364816200042f565b92915050565b6000602082840312156200037d57600080fd5b60006200038d8482850162000353565b91505092915050565b6000620003a382620003aa565b9050919050565b600073ffffffffffffffffffffffffffffffffffffffff82169050919050565b60006002820490506001821680620003e357607f821691505b60208210811415620003fa57620003f962000400565b5b50919050565b7f4e487b7100000000000000000000000000000000000000000000000000000000600052602260045260246000fd5b6200043a8162000396565b81146200044657600080fd5b50565b61341f80620004596000396000f3fe608060405234801561001057600080fd5b50600436106101165760003560e01c806370a08231116100a2578063c87b56dd11610071578063c87b56dd146102f3578063cad7d03314610323578063da2ed03e14610341578063e5326ab114610371578063e985e9c51461038f57610116565b806370a082311461026d57806395d89b411461029d578063a22cb465146102bb578063b88d4fde146102d757610116565b806323b872dd116100e957806323b872dd146101b55780632f39352a146101d1578063421c92cc146101ef57806342842e0e146102215780636352211e1461023d57610116565b806301ffc9a71461011b57806306fdde031461014b578063081812fc14610169578063095ea7b314610199575b600080fd5b610135600480360381019061013091906122b1565b6103bf565b604051610142919061284a565b60405180910390f35b6101536104a1565b6040516101609190612865565b60405180910390f35b610183600480360381019061017e9190612344565b610533565b60405161019091906127c1565b60405180910390f35b6101b360048036038101906101ae9190612275565b6105b8565b005b6101cf60048036038101906101ca919061216f565b6106d0565b005b6101d9610730565b6040516101e69190612865565b60405180910390f35b61020960048036038101906102049190612344565b6107be565b60405161021893929190612aa2565b60405180910390f35b61023b6004803603810190610236919061216f565b610890565b005b61025760048036038101906102529190612344565b6108b0565b60405161026491906127c1565b60405180910390f35b6102876004803603810190610282919061210a565b610962565b6040516102949190612a87565b60405180910390f35b6102a5610a1a565b6040516102b29190612865565b60405180910390f35b6102d560048036038101906102d09190612239565b610aac565b005b6102f160048036038101906102ec91906121be565b610ac2565b005b61030d60048036038101906103089190612344565b610b24565b60405161031a9190612865565b60405180910390f35b61032b610c76565b6040516103389190612828565b60405180910390f35b61035b60048036038101906103569190612303565b610fa3565b6040516103689190612a87565b60405180910390f35b6103796110bb565b6040516103869190612865565b60405180910390f35b6103a960048036038101906103a49190612133565b611149565b6040516103b6919061284a565b60405180910390f35b60007f80ac58cd000000000000000000000000000000000000000000000000000000007bffffffffffffffffffffffffffffffffffffffffffffffffffffffff1916827bffffffffffffffffffffffffffffffffffffffffffffffffffffffff1916148061048a57507f5b5e139f000000000000000000000000000000000000000000000000000000007bffffffffffffffffffffffffffffffffffffffffffffffffffffffff1916827bffffffffffffffffffffffffffffffffffffffffffffffffffffffff1916145b8061049a5750610499826111dd565b5b9050919050565b6060600080546104b090612d65565b80601f01602080910402602001604051908101604052809291908181526020018280546104dc90612d65565b80156105295780601f106104fe57610100808354040283529160200191610529565b820191906000526020600020905b81548152906001019060200180831161050c57829003601f168201915b5050505050905090565b600061053e82611247565b61057d576040517f08c379a0000000000000000000000000000000000000000000000000000000008152600401610574906129e7565b60405180910390fd5b6004600083815260200190815260200160002060009054906101000a900473ffffffffffffffffffffffffffffffffffffffff169050919050565b60006105c3826108b0565b90508073ffffffffffffffffffffffffffffffffffffffff168373ffffffffffffffffffffffffffffffffffffffff161415610634576040517f08c379a000000000000000000000000000000000000000000000000000000000815260040161062b90612a47565b60405180910390fd5b8073ffffffffffffffffffffffffffffffffffffffff166106536112b3565b73ffffffffffffffffffffffffffffffffffffffff16148061068257506106818161067c6112b3565b611149565b5b6106c1576040517f08c379a00000000000000000000000000000000000000000000000000000000081526004016106b890612927565b60405180910390fd5b6106cb83836112bb565b505050565b6106e16106db6112b3565b82611374565b610720576040517f08c379a000000000000000000000000000000000000000000000000000000000815260040161071790612a67565b60405180910390fd5b61072b838383611452565b505050565b600a805461073d90612d65565b80601f016020809104026020016040519081016040528092919081815260200182805461076990612d65565b80156107b65780601f1061078b576101008083540402835291602001916107b6565b820191906000526020600020905b81548152906001019060200180831161079957829003601f168201915b505050505081565b600b6020528060005260406000206000915090508060000154908060010160009054906101000a900473ffffffffffffffffffffffffffffffffffffffff169080600201805461080d90612d65565b80601f016020809104026020016040519081016040528092919081815260200182805461083990612d65565b80156108865780601f1061085b57610100808354040283529160200191610886565b820191906000526020600020905b81548152906001019060200180831161086957829003601f168201915b5050505050905083565b6108ab83838360405180602001604052806000815250610ac2565b505050565b6000806002600084815260200190815260200160002060009054906101000a900473ffffffffffffffffffffffffffffffffffffffff169050600073ffffffffffffffffffffffffffffffffffffffff168173ffffffffffffffffffffffffffffffffffffffff161415610959576040517f08c379a000000000000000000000000000000000000000000000000000000000815260040161095090612967565b60405180910390fd5b80915050919050565b60008073ffffffffffffffffffffffffffffffffffffffff168273ffffffffffffffffffffffffffffffffffffffff1614156109d3576040517f08c379a00000000000000000000000000000000000000000000000000000000081526004016109ca90612947565b60405180910390fd5b600360008373ffffffffffffffffffffffffffffffffffffffff1673ffffffffffffffffffffffffffffffffffffffff168152602001908152602001600020549050919050565b606060018054610a2990612d65565b80601f0160208091040260200160405190810160405280929190818152602001828054610a5590612d65565b8015610aa25780601f10610a7757610100808354040283529160200191610aa2565b820191906000526020600020905b815481529060010190602001808311610a8557829003601f168201915b5050505050905090565b610abe610ab76112b3565b83836116ae565b5050565b610ad3610acd6112b3565b83611374565b610b12576040517f08c379a0000000000000000000000000000000000000000000000000000000008152600401610b0990612a67565b60405180910390fd5b610b1e8484848461181b565b50505050565b6060610b2f82611247565b610b6e576040517f08c379a0000000000000000000000000000000000000000000000000000000008152600401610b65906129c7565b60405180910390fd5b6000600660008481526020019081526020016000208054610b8e90612d65565b80601f0160208091040260200160405190810160405280929190818152602001828054610bba90612d65565b8015610c075780601f10610bdc57610100808354040283529160200191610c07565b820191906000526020600020905b815481529060010190602001808311610bea57829003601f168201915b505050505090506000610c18611877565b9050600081511415610c2e578192505050610c71565b600082511115610c63578082604051602001610c4b92919061279d565b60405160208183030381529060405292505050610c71565b610c6c8461188e565b925050505b919050565b60606000610c846007611935565b905060008060005b83811015610d21573373ffffffffffffffffffffffffffffffffffffffff16600b600083815260200190815260200160002060010160009054906101000a900473ffffffffffffffffffffffffffffffffffffffff1673ffffffffffffffffffffffffffffffffffffffff161415610d0e57600183610d0b9190612bf4565b92505b8080610d1990612dc8565b915050610c8c565b5060008267ffffffffffffffff811115610d64577f4e487b7100000000000000000000000000000000000000000000000000000000600052604160045260246000fd5b604051908082528060200260200182016040528015610d9d57816020015b610d8a611ef7565b815260200190600190039081610d825790505b50905060005b84811015610f98573373ffffffffffffffffffffffffffffffffffffffff16600b600083815260200190815260200160002060010160009054906101000a900473ffffffffffffffffffffffffffffffffffffffff1673ffffffffffffffffffffffffffffffffffffffff161415610f855760008190506000600b6000838152602001908152602001600020905080604051806060016040529081600082015481526020016001820160009054906101000a900473ffffffffffffffffffffffffffffffffffffffff1673ffffffffffffffffffffffffffffffffffffffff1673ffffffffffffffffffffffffffffffffffffffff168152602001600282018054610ead90612d65565b80601f0160208091040260200160405190810160405280929190818152602001828054610ed990612d65565b8015610f265780601f10610efb57610100808354040283529160200191610f26565b820191906000526020600020905b815481529060010190602001808311610f0957829003601f168201915b505050505081525050848681518110610f68577f4e487b7100000000000000000000000000000000000000000000000000000000600052603260045260246000fd5b6020026020010181905250600185610f809190612bf4565b945050505b8080610f9090612dc8565b915050610da3565b508094505050505090565b600080610fb06007611935565b9050610fbc3382611943565b610fc68184611b11565b610ff3600860009054906101000a900473ffffffffffffffffffffffffffffffffffffffff166001610aac565b60405180606001604052808281526020013373ffffffffffffffffffffffffffffffffffffffff16815260200184815250600b60008381526020019081526020016000206000820151816000015560208201518160010160006101000a81548173ffffffffffffffffffffffffffffffffffffffff021916908373ffffffffffffffffffffffffffffffffffffffff16021790555060408201518160020190805190602001906110a4929190611f2e565b509050506110b26007611b85565b80915050919050565b600980546110c890612d65565b80601f01602080910402602001604051908101604052809291908181526020018280546110f490612d65565b80156111415780601f1061111657610100808354040283529160200191611141565b820191906000526020600020905b81548152906001019060200180831161112457829003601f168201915b505050505081565b6000600560008473ffffffffffffffffffffffffffffffffffffffff1673ffffffffffffffffffffffffffffffffffffffff16815260200190815260200160002060008373ffffffffffffffffffffffffffffffffffffffff1673ffffffffffffffffffffffffffffffffffffffff16815260200190815260200160002060009054906101000a900460ff16905092915050565b60007f01ffc9a7000000000000000000000000000000000000000000000000000000007bffffffffffffffffffffffffffffffffffffffffffffffffffffffff1916827bffffffffffffffffffffffffffffffffffffffffffffffffffffffff1916149050919050565b60008073ffffffffffffffffffffffffffffffffffffffff166002600084815260200190815260200160002060009054906101000a900473ffffffffffffffffffffffffffffffffffffffff1673ffffffffffffffffffffffffffffffffffffffff1614159050919050565b600033905090565b816004600083815260200190815260200160002060006101000a81548173ffffffffffffffffffffffffffffffffffffffff021916908373ffffffffffffffffffffffffffffffffffffffff160217905550808273ffffffffffffffffffffffffffffffffffffffff1661132e836108b0565b73ffffffffffffffffffffffffffffffffffffffff167f8c5be1e5ebec7d5bd14f71427d1e84f3dd0314c0f7b2291e5b200ac8c7c3b92560405160405180910390a45050565b600061137f82611247565b6113be576040517f08c379a00000000000000000000000000000000000000000000000000000000081526004016113b590612907565b60405180910390fd5b60006113c9836108b0565b90508073ffffffffffffffffffffffffffffffffffffffff168473ffffffffffffffffffffffffffffffffffffffff16148061143857508373ffffffffffffffffffffffffffffffffffffffff1661142084610533565b73ffffffffffffffffffffffffffffffffffffffff16145b8061144957506114488185611149565b5b91505092915050565b8273ffffffffffffffffffffffffffffffffffffffff16611472826108b0565b73ffffffffffffffffffffffffffffffffffffffff16146114c8576040517f08c379a00000000000000000000000000000000000000000000000000000000081526004016114bf90612a07565b60405180910390fd5b600073ffffffffffffffffffffffffffffffffffffffff168273ffffffffffffffffffffffffffffffffffffffff161415611538576040517f08c379a000000000000000000000000000000000000000000000000000000000815260040161152f906128c7565b60405180910390fd5b611543838383611b9b565b61154e6000826112bb565b6001600360008573ffffffffffffffffffffffffffffffffffffffff1673ffffffffffffffffffffffffffffffffffffffff168152602001908152602001600020600082825461159e9190612c7b565b925050819055506001600360008473ffffffffffffffffffffffffffffffffffffffff1673ffffffffffffffffffffffffffffffffffffffff16815260200190815260200160002060008282546115f59190612bf4565b92505081905550816002600083815260200190815260200160002060006101000a81548173ffffffffffffffffffffffffffffffffffffffff021916908373ffffffffffffffffffffffffffffffffffffffff160217905550808273ffffffffffffffffffffffffffffffffffffffff168473ffffffffffffffffffffffffffffffffffffffff167fddf252ad1be2c89b69c2b068fc378daa952ba7f163c4a11628f55a4df523b3ef60405160405180910390a4505050565b8173ffffffffffffffffffffffffffffffffffffffff168373ffffffffffffffffffffffffffffffffffffffff16141561171d576040517f08c379a0000000000000000000000000000000000000000000000000000000008152600401611714906128e7565b60405180910390fd5b80600560008573ffffffffffffffffffffffffffffffffffffffff1673ffffffffffffffffffffffffffffffffffffffff16815260200190815260200160002060008473ffffffffffffffffffffffffffffffffffffffff1673ffffffffffffffffffffffffffffffffffffffff16815260200190815260200160002060006101000a81548160ff0219169083151502179055508173ffffffffffffffffffffffffffffffffffffffff168373ffffffffffffffffffffffffffffffffffffffff167f17307eab39ab6107e8899845ad3d59bd9653f200f220920489ca2b5937696c318360405161180e919061284a565b60405180910390a3505050565b611826848484611452565b61183284848484611ba0565b611871576040517f08c379a000000000000000000000000000000000000000000000000000000000815260040161186890612887565b60405180910390fd5b50505050565b606060405180602001604052806000815250905090565b606061189982611247565b6118d8576040517f08c379a00000000000000000000000000000000000000000000000000000000081526004016118cf90612a27565b60405180910390fd5b60006118e2611877565b90506000815111611902576040518060200160405280600081525061192d565b8061190c84611d37565b60405160200161191d92919061279d565b6040516020818303038152906040525b915050919050565b600081600001549050919050565b600073ffffffffffffffffffffffffffffffffffffffff168273ffffffffffffffffffffffffffffffffffffffff1614156119b3576040517f08c379a00000000000000000000000000000000000000000000000000000000081526004016119aa906129a7565b60405180910390fd5b6119bc81611247565b156119fc576040517f08c379a00000000000000000000000000000000000000000000000000000000081526004016119f3906128a7565b60405180910390fd5b611a0860008383611b9b565b6001600360008473ffffffffffffffffffffffffffffffffffffffff1673ffffffffffffffffffffffffffffffffffffffff1681526020019081526020016000206000828254611a589190612bf4565b92505081905550816002600083815260200190815260200160002060006101000a81548173ffffffffffffffffffffffffffffffffffffffff021916908373ffffffffffffffffffffffffffffffffffffffff160217905550808273ffffffffffffffffffffffffffffffffffffffff16600073ffffffffffffffffffffffffffffffffffffffff167fddf252ad1be2c89b69c2b068fc378daa952ba7f163c4a11628f55a4df523b3ef60405160405180910390a45050565b611b1a82611247565b611b59576040517f08c379a0000000000000000000000000000000000000000000000000000000008152600401611b5090612987565b60405180910390fd5b80600660008481526020019081526020016000209080519060200190611b80929190611f2e565b505050565b6001816000016000828254019250508190555050565b505050565b6000611bc18473ffffffffffffffffffffffffffffffffffffffff16611ee4565b15611d2a578373ffffffffffffffffffffffffffffffffffffffff1663150b7a02611bea6112b3565b8786866040518563ffffffff1660e01b8152600401611c0c94939291906127dc565b602060405180830381600087803b158015611c2657600080fd5b505af1925050508015611c5757506040513d601f19601f82011682018060405250810190611c5491906122da565b60015b611cda573d8060008114611c87576040519150601f19603f3d011682016040523d82523d6000602084013e611c8c565b606091505b50600081511415611cd2576040517f08c379a0000000000000000000000000000000000000000000000000000000008152600401611cc990612887565b60405180910390fd5b805181602001fd5b63150b7a0260e01b7bffffffffffffffffffffffffffffffffffffffffffffffffffffffff1916817bffffffffffffffffffffffffffffffffffffffffffffffffffffffff191614915050611d2f565b600190505b949350505050565b60606000821415611d7f576040518060400160405280600181526020017f30000000000000000000000000000000000000000000000000000000000000008152509050611edf565b600082905060005b60008214611db1578080611d9a90612dc8565b915050600a82611daa9190612c4a565b9150611d87565b60008167ffffffffffffffff811115611df3577f4e487b7100000000000000000000000000000000000000000000000000000000600052604160045260246000fd5b6040519080825280601f01601f191660200182016040528015611e255781602001600182028036833780820191505090505b5090505b60008514611ed857600182611e3e9190612c7b565b9150600a85611e4d9190612e11565b6030611e599190612bf4565b60f81b818381518110611e95577f4e487b7100000000000000000000000000000000000000000000000000000000600052603260045260246000fd5b60200101907effffffffffffffffffffffffffffffffffffffffffffffffffffffffffffff1916908160001a905350600a85611ed19190612c4a565b9450611e29565b8093505050505b919050565b600080823b905060008111915050919050565b604051806060016040528060008152602001600073ffffffffffffffffffffffffffffffffffffffff168152602001606081525090565b828054611f3a90612d65565b90600052602060002090601f016020900481019282611f5c5760008555611fa3565b82601f10611f7557805160ff1916838001178555611fa3565b82800160010185558215611fa3579182015b82811115611fa2578251825591602001919060010190611f87565b5b509050611fb09190611fb4565b5090565b5b80821115611fcd576000816000905550600101611fb5565b5090565b6000611fe4611fdf84612b05565b612ae0565b905082815260208101848484011115611ffc57600080fd5b612007848285612d23565b509392505050565b600061202261201d84612b36565b612ae0565b90508281526020810184848401111561203a57600080fd5b612045848285612d23565b509392505050565b60008135905061205c8161338d565b92915050565b600081359050612071816133a4565b92915050565b600081359050612086816133bb565b92915050565b60008151905061209b816133bb565b92915050565b600082601f8301126120b257600080fd5b81356120c2848260208601611fd1565b91505092915050565b600082601f8301126120dc57600080fd5b81356120ec84826020860161200f565b91505092915050565b600081359050612104816133d2565b92915050565b60006020828403121561211c57600080fd5b600061212a8482850161204d565b91505092915050565b6000806040838503121561214657600080fd5b60006121548582860161204d565b92505060206121658582860161204d565b9150509250929050565b60008060006060848603121561218457600080fd5b60006121928682870161204d565b93505060206121a38682870161204d565b92505060406121b4868287016120f5565b9150509250925092565b600080600080608085870312156121d457600080fd5b60006121e28782880161204d565b94505060206121f38782880161204d565b9350506040612204878288016120f5565b925050606085013567ffffffffffffffff81111561222157600080fd5b61222d878288016120a1565b91505092959194509250565b6000806040838503121561224c57600080fd5b600061225a8582860161204d565b925050602061226b85828601612062565b9150509250929050565b6000806040838503121561228857600080fd5b60006122968582860161204d565b92505060206122a7858286016120f5565b9150509250929050565b6000602082840312156122c357600080fd5b60006122d184828501612077565b91505092915050565b6000602082840312156122ec57600080fd5b60006122fa8482850161208c565b91505092915050565b60006020828403121561231557600080fd5b600082013567ffffffffffffffff81111561232f57600080fd5b61233b848285016120cb565b91505092915050565b60006020828403121561235657600080fd5b6000612364848285016120f5565b91505092915050565b6000612379838361272f565b905092915050565b61238a81612caf565b82525050565b61239981612caf565b82525050565b60006123aa82612b77565b6123b48185612ba5565b9350836020820285016123c685612b67565b8060005b8581101561240257848403895281516123e3858261236d565b94506123ee83612b98565b925060208a019950506001810190506123ca565b50829750879550505050505092915050565b61241d81612cc1565b82525050565b600061242e82612b82565b6124388185612bb6565b9350612448818560208601612d32565b61245181612efe565b840191505092915050565b600061246782612b8d565b6124718185612bc7565b9350612481818560208601612d32565b61248a81612efe565b840191505092915050565b60006124a082612b8d565b6124aa8185612bd8565b93506124ba818560208601612d32565b6124c381612efe565b840191505092915050565b60006124d982612b8d565b6124e38185612be9565b93506124f3818560208601612d32565b80840191505092915050565b600061250c603283612bd8565b915061251782612f0f565b604082019050919050565b600061252f601c83612bd8565b915061253a82612f5e565b602082019050919050565b6000612552602483612bd8565b915061255d82612f87565b604082019050919050565b6000612575601983612bd8565b915061258082612fd6565b602082019050919050565b6000612598602c83612bd8565b91506125a382612fff565b604082019050919050565b60006125bb603883612bd8565b91506125c68261304e565b604082019050919050565b60006125de602a83612bd8565b91506125e98261309d565b604082019050919050565b6000612601602983612bd8565b915061260c826130ec565b604082019050919050565b6000612624602e83612bd8565b915061262f8261313b565b604082019050919050565b6000612647602083612bd8565b91506126528261318a565b602082019050919050565b600061266a603183612bd8565b9150612675826131b3565b604082019050919050565b600061268d602c83612bd8565b915061269882613202565b604082019050919050565b60006126b0602983612bd8565b91506126bb82613251565b604082019050919050565b60006126d3602f83612bd8565b91506126de826132a0565b604082019050919050565b60006126f6602183612bd8565b9150612701826132ef565b604082019050919050565b6000612719603183612bd8565b91506127248261333e565b604082019050919050565b6000606083016000830151612747600086018261277f565b50602083015161275a6020860182612381565b5060408301518482036040860152612772828261245c565b9150508091505092915050565b61278881612d19565b82525050565b61279781612d19565b82525050565b60006127a982856124ce565b91506127b582846124ce565b91508190509392505050565b60006020820190506127d66000830184612390565b92915050565b60006080820190506127f16000830187612390565b6127fe6020830186612390565b61280b604083018561278e565b818103606083015261281d8184612423565b905095945050505050565b60006020820190508181036000830152612842818461239f565b905092915050565b600060208201905061285f6000830184612414565b92915050565b6000602082019050818103600083015261287f8184612495565b905092915050565b600060208201905081810360008301526128a0816124ff565b9050919050565b600060208201905081810360008301526128c081612522565b9050919050565b600060208201905081810360008301526128e081612545565b9050919050565b6000602082019050818103600083015261290081612568565b9050919050565b600060208201905081810360008301526129208161258b565b9050919050565b60006020820190508181036000830152612940816125ae565b9050919050565b60006020820190508181036000830152612960816125d1565b9050919050565b60006020820190508181036000830152612980816125f4565b9050919050565b600060208201905081810360008301526129a081612617565b9050919050565b600060208201905081810360008301526129c08161263a565b9050919050565b600060208201905081810360008301526129e08161265d565b9050919050565b60006020820190508181036000830152612a0081612680565b9050919050565b60006020820190508181036000830152612a20816126a3565b9050919050565b60006020820190508181036000830152612a40816126c6565b9050919050565b60006020820190508181036000830152612a60816126e9565b9050919050565b60006020820190508181036000830152612a808161270c565b9050919050565b6000602082019050612a9c600083018461278e565b92915050565b6000606082019050612ab7600083018661278e565b612ac46020830185612390565b8181036040830152612ad68184612495565b9050949350505050565b6000612aea612afb565b9050612af68282612d97565b919050565b6000604051905090565b600067ffffffffffffffff821115612b2057612b1f612ecf565b5b612b2982612efe565b9050602081019050919050565b600067ffffffffffffffff821115612b5157612b50612ecf565b5b612b5a82612efe565b9050602081019050919050565b6000819050602082019050919050565b600081519050919050565b600081519050919050565b600081519050919050565b6000602082019050919050565b600082825260208201905092915050565b600082825260208201905092915050565b600082825260208201905092915050565b600082825260208201905092915050565b600081905092915050565b6000612bff82612d19565b9150612c0a83612d19565b9250827fffffffffffffffffffffffffffffffffffffffffffffffffffffffffffffffff03821115612c3f57612c3e612e42565b5b828201905092915050565b6000612c5582612d19565b9150612c6083612d19565b925082612c7057612c6f612e71565b5b828204905092915050565b6000612c8682612d19565b9150612c9183612d19565b925082821015612ca457612ca3612e42565b5b828203905092915050565b6000612cba82612cf9565b9050919050565b60008115159050919050565b60007fffffffff0000000000000000000000000000000000000000000000000000000082169050919050565b600073ffffffffffffffffffffffffffffffffffffffff82169050919050565b6000819050919050565b82818337600083830152505050565b60005b83811015612d50578082015181840152602081019050612d35565b83811115612d5f576000848401525b50505050565b60006002820490506001821680612d7d57607f821691505b60208210811415612d9157612d90612ea0565b5b50919050565b612da082612efe565b810181811067ffffffffffffffff82111715612dbf57612dbe612ecf565b5b80604052505050565b6000612dd382612d19565b91507fffffffffffffffffffffffffffffffffffffffffffffffffffffffffffffffff821415612e0657612e05612e42565b5b600182019050919050565b6000612e1c82612d19565b9150612e2783612d19565b925082612e3757612e36612e71565b5b828206905092915050565b7f4e487b7100000000000000000000000000000000000000000000000000000000600052601160045260246000fd5b7f4e487b7100000000000000000000000000000000000000000000000000000000600052601260045260246000fd5b7f4e487b7100000000000000000000000000000000000000000000000000000000600052602260045260246000fd5b7f4e487b7100000000000000000000000000000000000000000000000000000000600052604160045260246000fd5b6000601f19601f8301169050919050565b7f4552433732313a207472616e7366657220746f206e6f6e20455243373231526560008201527f63656976657220696d706c656d656e7465720000000000000000000000000000602082015250565b7f4552433732313a20746f6b656e20616c7265616479206d696e74656400000000600082015250565b7f4552433732313a207472616e7366657220746f20746865207a65726f2061646460008201527f7265737300000000000000000000000000000000000000000000000000000000602082015250565b7f4552433732313a20617070726f766520746f2063616c6c657200000000000000600082015250565b7f4552433732313a206f70657261746f7220717565727920666f72206e6f6e657860008201527f697374656e7420746f6b656e0000000000000000000000000000000000000000602082015250565b7f4552433732313a20617070726f76652063616c6c6572206973206e6f74206f7760008201527f6e6572206e6f7220617070726f76656420666f7220616c6c0000000000000000602082015250565b7f4552433732313a2062616c616e636520717565727920666f7220746865207a6560008201527f726f206164647265737300000000000000000000000000000000000000000000602082015250565b7f4552433732313a206f776e657220717565727920666f72206e6f6e657869737460008201527f656e7420746f6b656e0000000000000000000000000000000000000000000000602082015250565b7f45524337323155524953746f726167653a2055524920736574206f66206e6f6e60008201527f6578697374656e7420746f6b656e000000000000000000000000000000000000602082015250565b7f4552433732313a206d696e7420746f20746865207a65726f2061646472657373600082015250565b7f45524337323155524953746f726167653a2055524920717565727920666f722060008201527f6e6f6e6578697374656e7420746f6b656e000000000000000000000000000000602082015250565b7f4552433732313a20617070726f76656420717565727920666f72206e6f6e657860008201527f697374656e7420746f6b656e0000000000000000000000000000000000000000602082015250565b7f4552433732313a207472616e73666572206f6620746f6b656e2074686174206960008201527f73206e6f74206f776e0000000000000000000000000000000000000000000000602082015250565b7f4552433732314d657461646174613a2055524920717565727920666f72206e6f60008201527f6e6578697374656e7420746f6b656e0000000000000000000000000000000000602082015250565b7f4552433732313a20617070726f76616c20746f2063757272656e74206f776e6560008201527f7200000000000000000000000000000000000000000000000000000000000000602082015250565b7f4552433732313a207472616e736665722063616c6c6572206973206e6f74206f60008201527f776e6572206e6f7220617070726f766564000000000000000000000000000000602082015250565b61339681612caf565b81146133a157600080fd5b50565b6133ad81612cc1565b81146133b857600080fd5b50565b6133c481612ccd565b81146133cf57600080fd5b50565b6133db81612d19565b81146133e657600080fd5b5056fea2646970667358221220b0aed4fcd6cd6ab0c476c77a280715646aa2f04afc0bcaa20a53c932ae7fa66764736f6c63430008030033",
	"linkReferences": {},
	"deployedLinkReferences": {}
}