{
  "_format": "hh-sol-artifact-1",
  "contractName": "NFT",
  "sourceName": "contracts/NFT.sol",
  "abi": [
    {
      "inputs": [
        {
          "internalType": "address",
          "name": "marketplaceAddress",
          "type": "address"
        }
      ],
      "stateMutability": "nonpayable",
      "type": "constructor"
    },
    {
      "anonymous": false,
      "inputs": [
        {
          "indexed": true,
          "internalType": "address",
          "name": "owner",
          "type": "address"
        },
        {
          "indexed": true,
          "internalType": "address",
          "name": "approved",
          "type": "address"
        },
        {
          "indexed": true,
          "internalType": "uint256",
          "name": "tokenId",
          "type": "uint256"
        }
      ],
      "name": "Approval",
      "type": "event"
    },
    {
      "anonymous": false,
      "inputs": [
        {
          "indexed": true,
          "internalType": "address",
          "name": "owner",
          "type": "address"
        },
        {
          "indexed": true,
          "internalType": "address",
          "name": "operator",
          "type": "address"
        },
        {
          "indexed": false,
          "internalType": "bool",
          "name": "approved",
          "type": "bool"
        }
      ],
      "name": "ApprovalForAll",
      "type": "event"
    },
    {
      "anonymous": false,
      "inputs": [
        {
          "indexed": true,
          "internalType": "address",
          "name": "from",
          "type": "address"
        },
        {
          "indexed": true,
          "internalType": "address",
          "name": "to",
          "type": "address"
        },
        {
          "indexed": true,
          "internalType": "uint256",
          "name": "tokenId",
          "type": "uint256"
        }
      ],
      "name": "Transfer",
      "type": "event"
    },
    {
      "inputs": [
        {
          "internalType": "address",
          "name": "to",
          "type": "address"
        },
        {
          "internalType": "uint256",
          "name": "tokenId",
          "type": "uint256"
        }
      ],
      "name": "approve",
      "outputs": [],
      "stateMutability": "nonpayable",
      "type": "function"
    },
    {
      "inputs": [
        {
          "internalType": "address",
          "name": "owner",
          "type": "address"
        }
      ],
      "name": "balanceOf",
      "outputs": [
        {
          "internalType": "uint256",
          "name": "",
          "type": "uint256"
        }
      ],
      "stateMutability": "view",
      "type": "function"
    },
    {
      "inputs": [],
      "name": "collectionName",
      "outputs": [
        {
          "internalType": "string",
          "name": "",
          "type": "string"
        }
      ],
      "stateMutability": "view",
      "type": "function"
    },
    {
      "inputs": [],
      "name": "collectionSymbol",
      "outputs": [
        {
          "internalType": "string",
          "name": "",
          "type": "string"
        }
      ],
      "stateMutability": "view",
      "type": "function"
    },
    {
      "inputs": [
        {
          "internalType": "string",
          "name": "tokenUri",
          "type": "string"
        }
      ],
      "name": "createNFT",
      "outputs": [
        {
          "internalType": "uint256",
          "name": "",
          "type": "uint256"
        }
      ],
      "stateMutability": "nonpayable",
      "type": "function"
    },
    {
      "inputs": [
        {
          "internalType": "uint256",
          "name": "tokenId",
          "type": "uint256"
        }
      ],
      "name": "getApproved",
      "outputs": [
        {
          "internalType": "address",
          "name": "",
          "type": "address"
        }
      ],
      "stateMutability": "view",
      "type": "function"
    },
    {
      "inputs": [
        {
          "internalType": "uint256",
          "name": "",
          "type": "uint256"
        }
      ],
      "name": "idToNFTItems",
      "outputs": [
        {
          "internalType": "uint256",
          "name": "tokenId",
          "type": "uint256"
        },
        {
          "internalType": "address",
          "name": "owner",
          "type": "address"
        },
        {
          "internalType": "string",
          "name": "tokenUri",
          "type": "string"
        }
      ],
      "stateMutability": "view",
      "type": "function"
    },
    {
      "inputs": [
        {
          "internalType": "address",
          "name": "owner",
          "type": "address"
        },
        {
          "internalType": "address",
          "name": "operator",
          "type": "address"
        }
      ],
      "name": "isApprovedForAll",
      "outputs": [
        {
          "internalType": "bool",
          "name": "",
          "type": "bool"
        }
      ],
      "stateMutability": "view",
      "type": "function"
    },
    {
      "inputs": [],
      "name": "name",
      "outputs": [
        {
          "internalType": "string",
          "name": "",
          "type": "string"
        }
      ],
      "stateMutability": "view",
      "type": "function"
    },
    {
      "inputs": [
        {
          "internalType": "uint256",
          "name": "tokenId",
          "type": "uint256"
        }
      ],
      "name": "ownerOf",
      "outputs": [
        {
          "internalType": "address",
          "name": "",
          "type": "address"
        }
      ],
      "stateMutability": "view",
      "type": "function"
    },
    {
      "inputs": [
        {
          "internalType": "address",
          "name": "from",
          "type": "address"
        },
        {
          "internalType": "address",
          "name": "to",
          "type": "address"
        },
        {
          "internalType": "uint256",
          "name": "tokenId",
          "type": "uint256"
        }
      ],
      "name": "safeTransferFrom",
      "outputs": [],
      "stateMutability": "nonpayable",
      "type": "function"
    },
    {
      "inputs": [
        {
          "internalType": "address",
          "name": "from",
          "type": "address"
        },
        {
          "internalType": "address",
          "name": "to",
          "type": "address"
        },
        {
          "internalType": "uint256",
          "name": "tokenId",
          "type": "uint256"
        },
        {
          "internalType": "bytes",
          "name": "_data",
          "type": "bytes"
        }
      ],
      "name": "safeTransferFrom",
      "outputs": [],
      "stateMutability": "nonpayable",
      "type": "function"
    },
    {
      "inputs": [
        {
          "internalType": "address",
          "name": "operator",
          "type": "address"
        },
        {
          "internalType": "bool",
          "name": "approved",
          "type": "bool"
        }
      ],
      "name": "setApprovalForAll",
      "outputs": [],
      "stateMutability": "nonpayable",
      "type": "function"
    },
    {
      "inputs": [
        {
          "internalType": "bytes4",
          "name": "interfaceId",
          "type": "bytes4"
        }
      ],
      "name": "supportsInterface",
      "outputs": [
        {
          "internalType": "bool",
          "name": "",
          "type": "bool"
        }
      ],
      "stateMutability": "view",
      "type": "function"
    },
    {
      "inputs": [],
      "name": "symbol",
      "outputs": [
        {
          "internalType": "string",
          "name": "",
          "type": "string"
        }
      ],
      "stateMutability": "view",
      "type": "function"
    },
    {
      "inputs": [
        {
          "internalType": "uint256",
          "name": "tokenId",
          "type": "uint256"
        }
      ],
      "name": "tokenURI",
      "outputs": [
        {
          "internalType": "string",
          "name": "",
          "type": "string"
        }
      ],
      "stateMutability": "view",
      "type": "function"
    },
    {
      "inputs": [
        {
          "internalType": "address",
          "name": "from",
          "type": "address"
        },
        {
          "internalType": "address",
          "name": "to",
          "type": "address"
        },
        {
          "internalType": "uint256",
          "name": "tokenId",
          "type": "uint256"
        }
      ],
      "name": "transferFrom",
      "outputs": [],
      "stateMutability": "nonpayable",
      "type": "function"
    },
    {
      "inputs": [
        {
          "internalType": "address",
          "name": "from",
          "type": "address"
        },
        {
          "internalType": "address",
          "name": "to",
          "type": "address"
        },
        {
          "internalType": "uint256",
          "name": "tokenId",
          "type": "uint256"
        }
      ],
      "name": "transferNFT",
      "outputs": [],
      "stateMutability": "nonpayable",
      "type": "function"
    }
  ],
  "bytecode": "0x60806040523480156200001157600080fd5b50604051620034683803806200346883398181016040528101906200003791906200036a565b6040518060400160405280600b81526020017f5468696e6b7273204e46540000000000000000000000000000000000000000008152506040518060400160405280600581526020017f5448494e4b0000000000000000000000000000000000000000000000000000008152508160009080519060200190620000bb929190620002a3565b508060019080519060200190620000d4929190620002a3565b50505080600860006101000a81548173ffffffffffffffffffffffffffffffffffffffff021916908373ffffffffffffffffffffffffffffffffffffffff160217905550620001286200016f60201b60201c565b600990805190602001906200013f929190620002a3565b50620001506200020960201b60201c565b600a908051906020019062000167929190620002a3565b505062000449565b6060600080546200018090620003ca565b80601f0160208091040260200160405190810160405280929190818152602001828054620001ae90620003ca565b8015620001ff5780601f10620001d357610100808354040283529160200191620001ff565b820191906000526020600020905b815481529060010190602001808311620001e157829003601f168201915b5050505050905090565b6060600180546200021a90620003ca565b80601f01602080910402602001604051908101604052809291908181526020018280546200024890620003ca565b8015620002995780601f106200026d5761010080835404028352916020019162000299565b820191906000526020600020905b8154815290600101906020018083116200027b57829003601f168201915b5050505050905090565b828054620002b190620003ca565b90600052602060002090601f016020900481019282620002d5576000855562000321565b82601f10620002f057805160ff191683800117855562000321565b8280016001018555821562000321579182015b828111156200032057825182559160200191906001019062000303565b5b50905062000330919062000334565b5090565b5b808211156200034f57600081600090555060010162000335565b5090565b60008151905062000364816200042f565b92915050565b6000602082840312156200037d57600080fd5b60006200038d8482850162000353565b91505092915050565b6000620003a382620003aa565b9050919050565b600073ffffffffffffffffffffffffffffffffffffffff82169050919050565b60006002820490506001821680620003e357607f821691505b60208210811415620003fa57620003f962000400565b5b50919050565b7f4e487b7100000000000000000000000000000000000000000000000000000000600052602260045260246000fd5b6200043a8162000396565b81146200044657600080fd5b50565b61300f80620004596000396000f3fe608060405234801561001057600080fd5b50600436106101165760003560e01c806369e9cae1116100a2578063b88d4fde11610071578063b88d4fde146102f3578063c87b56dd1461030f578063da2ed03e1461033f578063e5326ab11461036f578063e985e9c51461038d57610116565b806369e9cae11461026d57806370a082311461028957806395d89b41146102b9578063a22cb465146102d757610116565b806323b872dd116100e957806323b872dd146101b55780632f39352a146101d1578063421c92cc146101ef57806342842e0e146102215780636352211e1461023d57610116565b806301ffc9a71461011b57806306fdde031461014b578063081812fc14610169578063095ea7b314610199575b600080fd5b61013560048036038101906101309190611fd1565b6103bd565b604051610142919061243b565b60405180910390f35b61015361049f565b6040516101609190612456565b60405180910390f35b610183600480360381019061017e9190612064565b610531565b60405161019091906123d4565b60405180910390f35b6101b360048036038101906101ae9190611f95565b6105b6565b005b6101cf60048036038101906101ca9190611e8f565b6106ce565b005b6101d961072e565b6040516101e69190612456565b60405180910390f35b61020960048036038101906102049190612064565b6107bc565b604051610218939291906126b3565b60405180910390f35b61023b60048036038101906102369190611e8f565b61088e565b005b61025760048036038101906102529190612064565b6108ae565b60405161026491906123d4565b60405180910390f35b61028760048036038101906102829190611e8f565b610960565b005b6102a3600480360381019061029e9190611e2a565b6109e6565b6040516102b09190612698565b60405180910390f35b6102c1610a9e565b6040516102ce9190612456565b60405180910390f35b6102f160048036038101906102ec9190611f59565b610b30565b005b61030d60048036038101906103089190611ede565b610b46565b005b61032960048036038101906103249190612064565b610ba8565b6040516103369190612456565b60405180910390f35b61035960048036038101906103549190612023565b610cfa565b6040516103669190612698565b60405180910390f35b610377610e12565b6040516103849190612456565b60405180910390f35b6103a760048036038101906103a29190611e53565b610ea0565b6040516103b4919061243b565b60405180910390f35b60007f80ac58cd000000000000000000000000000000000000000000000000000000007bffffffffffffffffffffffffffffffffffffffffffffffffffffffff1916827bffffffffffffffffffffffffffffffffffffffffffffffffffffffff1916148061048857507f5b5e139f000000000000000000000000000000000000000000000000000000007bffffffffffffffffffffffffffffffffffffffffffffffffffffffff1916827bffffffffffffffffffffffffffffffffffffffffffffffffffffffff1916145b80610498575061049782610f34565b5b9050919050565b6060600080546104ae9061292c565b80601f01602080910402602001604051908101604052809291908181526020018280546104da9061292c565b80156105275780601f106104fc57610100808354040283529160200191610527565b820191906000526020600020905b81548152906001019060200180831161050a57829003601f168201915b5050505050905090565b600061053c82610f9e565b61057b576040517f08c379a0000000000000000000000000000000000000000000000000000000008152600401610572906125d8565b60405180910390fd5b6004600083815260200190815260200160002060009054906101000a900473ffffffffffffffffffffffffffffffffffffffff169050919050565b60006105c1826108ae565b90508073ffffffffffffffffffffffffffffffffffffffff168373ffffffffffffffffffffffffffffffffffffffff161415610632576040517f08c379a000000000000000000000000000000000000000000000000000000000815260040161062990612638565b60405180910390fd5b8073ffffffffffffffffffffffffffffffffffffffff1661065161100a565b73ffffffffffffffffffffffffffffffffffffffff161480610680575061067f8161067a61100a565b610ea0565b5b6106bf576040517f08c379a00000000000000000000000000000000000000000000000000000000081526004016106b690612518565b60405180910390fd5b6106c98383611012565b505050565b6106df6106d961100a565b826110cb565b61071e576040517f08c379a000000000000000000000000000000000000000000000000000000000815260040161071590612658565b60405180910390fd5b6107298383836111a9565b505050565b600a805461073b9061292c565b80601f01602080910402602001604051908101604052809291908181526020018280546107679061292c565b80156107b45780601f10610789576101008083540402835291602001916107b4565b820191906000526020600020905b81548152906001019060200180831161079757829003601f168201915b505050505081565b600b6020528060005260406000206000915090508060000154908060010160009054906101000a900473ffffffffffffffffffffffffffffffffffffffff169080600201805461080b9061292c565b80601f01602080910402602001604051908101604052809291908181526020018280546108379061292c565b80156108845780601f1061085957610100808354040283529160200191610884565b820191906000526020600020905b81548152906001019060200180831161086757829003601f168201915b5050505050905083565b6108a983838360405180602001604052806000815250610b46565b505050565b6000806002600084815260200190815260200160002060009054906101000a900473ffffffffffffffffffffffffffffffffffffffff169050600073ffffffffffffffffffffffffffffffffffffffff168173ffffffffffffffffffffffffffffffffffffffff161415610957576040517f08c379a000000000000000000000000000000000000000000000000000000000815260040161094e90612558565b60405180910390fd5b80915050919050565b8273ffffffffffffffffffffffffffffffffffffffff16610980826108ae565b73ffffffffffffffffffffffffffffffffffffffff16146109d6576040517f08c379a00000000000000000000000000000000000000000000000000000000081526004016109cd90612678565b60405180910390fd5b6109e18383836111a9565b505050565b60008073ffffffffffffffffffffffffffffffffffffffff168273ffffffffffffffffffffffffffffffffffffffff161415610a57576040517f08c379a0000000000000000000000000000000000000000000000000000000008152600401610a4e90612538565b60405180910390fd5b600360008373ffffffffffffffffffffffffffffffffffffffff1673ffffffffffffffffffffffffffffffffffffffff168152602001908152602001600020549050919050565b606060018054610aad9061292c565b80601f0160208091040260200160405190810160405280929190818152602001828054610ad99061292c565b8015610b265780601f10610afb57610100808354040283529160200191610b26565b820191906000526020600020905b815481529060010190602001808311610b0957829003601f168201915b5050505050905090565b610b42610b3b61100a565b8383611405565b5050565b610b57610b5161100a565b836110cb565b610b96576040517f08c379a0000000000000000000000000000000000000000000000000000000008152600401610b8d90612658565b60405180910390fd5b610ba284848484611572565b50505050565b6060610bb382610f9e565b610bf2576040517f08c379a0000000000000000000000000000000000000000000000000000000008152600401610be9906125b8565b60405180910390fd5b6000600660008481526020019081526020016000208054610c129061292c565b80601f0160208091040260200160405190810160405280929190818152602001828054610c3e9061292c565b8015610c8b5780601f10610c6057610100808354040283529160200191610c8b565b820191906000526020600020905b815481529060010190602001808311610c6e57829003601f168201915b505050505090506000610c9c6115ce565b9050600081511415610cb2578192505050610cf5565b600082511115610ce7578082604051602001610ccf9291906123b0565b60405160208183030381529060405292505050610cf5565b610cf0846115e5565b925050505b919050565b600080610d07600761168c565b9050610d13338261169a565b610d1d8184611868565b610d4a600860009054906101000a900473ffffffffffffffffffffffffffffffffffffffff166001610b30565b60405180606001604052808281526020013373ffffffffffffffffffffffffffffffffffffffff16815260200184815250600b60008381526020019081526020016000206000820151816000015560208201518160010160006101000a81548173ffffffffffffffffffffffffffffffffffffffff021916908373ffffffffffffffffffffffffffffffffffffffff1602179055506040820151816002019080519060200190610dfb929190611c4e565b50905050610e0960076118dc565b80915050919050565b60098054610e1f9061292c565b80601f0160208091040260200160405190810160405280929190818152602001828054610e4b9061292c565b8015610e985780601f10610e6d57610100808354040283529160200191610e98565b820191906000526020600020905b815481529060010190602001808311610e7b57829003601f168201915b505050505081565b6000600560008473ffffffffffffffffffffffffffffffffffffffff1673ffffffffffffffffffffffffffffffffffffffff16815260200190815260200160002060008373ffffffffffffffffffffffffffffffffffffffff1673ffffffffffffffffffffffffffffffffffffffff16815260200190815260200160002060009054906101000a900460ff16905092915050565b60007f01ffc9a7000000000000000000000000000000000000000000000000000000007bffffffffffffffffffffffffffffffffffffffffffffffffffffffff1916827bffffffffffffffffffffffffffffffffffffffffffffffffffffffff1916149050919050565b60008073ffffffffffffffffffffffffffffffffffffffff166002600084815260200190815260200160002060009054906101000a900473ffffffffffffffffffffffffffffffffffffffff1673ffffffffffffffffffffffffffffffffffffffff1614159050919050565b600033905090565b816004600083815260200190815260200160002060006101000a81548173ffffffffffffffffffffffffffffffffffffffff021916908373ffffffffffffffffffffffffffffffffffffffff160217905550808273ffffffffffffffffffffffffffffffffffffffff16611085836108ae565b73ffffffffffffffffffffffffffffffffffffffff167f8c5be1e5ebec7d5bd14f71427d1e84f3dd0314c0f7b2291e5b200ac8c7c3b92560405160405180910390a45050565b60006110d682610f9e565b611115576040517f08c379a000000000000000000000000000000000000000000000000000000000815260040161110c906124f8565b60405180910390fd5b6000611120836108ae565b90508073ffffffffffffffffffffffffffffffffffffffff168473ffffffffffffffffffffffffffffffffffffffff16148061118f57508373ffffffffffffffffffffffffffffffffffffffff1661117784610531565b73ffffffffffffffffffffffffffffffffffffffff16145b806111a0575061119f8185610ea0565b5b91505092915050565b8273ffffffffffffffffffffffffffffffffffffffff166111c9826108ae565b73ffffffffffffffffffffffffffffffffffffffff161461121f576040517f08c379a0000000000000000000000000000000000000000000000000000000008152600401611216906125f8565b60405180910390fd5b600073ffffffffffffffffffffffffffffffffffffffff168273ffffffffffffffffffffffffffffffffffffffff16141561128f576040517f08c379a0000000000000000000000000000000000000000000000000000000008152600401611286906124b8565b60405180910390fd5b61129a8383836118f2565b6112a5600082611012565b6001600360008573ffffffffffffffffffffffffffffffffffffffff1673ffffffffffffffffffffffffffffffffffffffff16815260200190815260200160002060008282546112f59190612842565b925050819055506001600360008473ffffffffffffffffffffffffffffffffffffffff1673ffffffffffffffffffffffffffffffffffffffff168152602001908152602001600020600082825461134c91906127bb565b92505081905550816002600083815260200190815260200160002060006101000a81548173ffffffffffffffffffffffffffffffffffffffff021916908373ffffffffffffffffffffffffffffffffffffffff160217905550808273ffffffffffffffffffffffffffffffffffffffff168473ffffffffffffffffffffffffffffffffffffffff167fddf252ad1be2c89b69c2b068fc378daa952ba7f163c4a11628f55a4df523b3ef60405160405180910390a4505050565b8173ffffffffffffffffffffffffffffffffffffffff168373ffffffffffffffffffffffffffffffffffffffff161415611474576040517f08c379a000000000000000000000000000000000000000000000000000000000815260040161146b906124d8565b60405180910390fd5b80600560008573ffffffffffffffffffffffffffffffffffffffff1673ffffffffffffffffffffffffffffffffffffffff16815260200190815260200160002060008473ffffffffffffffffffffffffffffffffffffffff1673ffffffffffffffffffffffffffffffffffffffff16815260200190815260200160002060006101000a81548160ff0219169083151502179055508173ffffffffffffffffffffffffffffffffffffffff168373ffffffffffffffffffffffffffffffffffffffff167f17307eab39ab6107e8899845ad3d59bd9653f200f220920489ca2b5937696c3183604051611565919061243b565b60405180910390a3505050565b61157d8484846111a9565b611589848484846118f7565b6115c8576040517f08c379a00000000000000000000000000000000000000000000000000000000081526004016115bf90612478565b60405180910390fd5b50505050565b606060405180602001604052806000815250905090565b60606115f082610f9e565b61162f576040517f08c379a000000000000000000000000000000000000000000000000000000000815260040161162690612618565b60405180910390fd5b60006116396115ce565b905060008151116116595760405180602001604052806000815250611684565b8061166384611a8e565b6040516020016116749291906123b0565b6040516020818303038152906040525b915050919050565b600081600001549050919050565b600073ffffffffffffffffffffffffffffffffffffffff168273ffffffffffffffffffffffffffffffffffffffff16141561170a576040517f08c379a000000000000000000000000000000000000000000000000000000000815260040161170190612598565b60405180910390fd5b61171381610f9e565b15611753576040517f08c379a000000000000000000000000000000000000000000000000000000000815260040161174a90612498565b60405180910390fd5b61175f600083836118f2565b6001600360008473ffffffffffffffffffffffffffffffffffffffff1673ffffffffffffffffffffffffffffffffffffffff16815260200190815260200160002060008282546117af91906127bb565b92505081905550816002600083815260200190815260200160002060006101000a81548173ffffffffffffffffffffffffffffffffffffffff021916908373ffffffffffffffffffffffffffffffffffffffff160217905550808273ffffffffffffffffffffffffffffffffffffffff16600073ffffffffffffffffffffffffffffffffffffffff167fddf252ad1be2c89b69c2b068fc378daa952ba7f163c4a11628f55a4df523b3ef60405160405180910390a45050565b61187182610f9e565b6118b0576040517f08c379a00000000000000000000000000000000000000000000000000000000081526004016118a790612578565b60405180910390fd5b806006600084815260200190815260200160002090805190602001906118d7929190611c4e565b505050565b6001816000016000828254019250508190555050565b505050565b60006119188473ffffffffffffffffffffffffffffffffffffffff16611c3b565b15611a81578373ffffffffffffffffffffffffffffffffffffffff1663150b7a0261194161100a565b8786866040518563ffffffff1660e01b815260040161196394939291906123ef565b602060405180830381600087803b15801561197d57600080fd5b505af19250505080156119ae57506040513d601f19601f820116820180604052508101906119ab9190611ffa565b60015b611a31573d80600081146119de576040519150601f19603f3d011682016040523d82523d6000602084013e6119e3565b606091505b50600081511415611a29576040517f08c379a0000000000000000000000000000000000000000000000000000000008152600401611a2090612478565b60405180910390fd5b805181602001fd5b63150b7a0260e01b7bffffffffffffffffffffffffffffffffffffffffffffffffffffffff1916817bffffffffffffffffffffffffffffffffffffffffffffffffffffffff191614915050611a86565b600190505b949350505050565b60606000821415611ad6576040518060400160405280600181526020017f30000000000000000000000000000000000000000000000000000000000000008152509050611c36565b600082905060005b60008214611b08578080611af19061298f565b915050600a82611b019190612811565b9150611ade565b60008167ffffffffffffffff811115611b4a577f4e487b7100000000000000000000000000000000000000000000000000000000600052604160045260246000fd5b6040519080825280601f01601f191660200182016040528015611b7c5781602001600182028036833780820191505090505b5090505b60008514611c2f57600182611b959190612842565b9150600a85611ba491906129d8565b6030611bb091906127bb565b60f81b818381518110611bec577f4e487b7100000000000000000000000000000000000000000000000000000000600052603260045260246000fd5b60200101907effffffffffffffffffffffffffffffffffffffffffffffffffffffffffffff1916908160001a905350600a85611c289190612811565b9450611b80565b8093505050505b919050565b600080823b905060008111915050919050565b828054611c5a9061292c565b90600052602060002090601f016020900481019282611c7c5760008555611cc3565b82601f10611c9557805160ff1916838001178555611cc3565b82800160010185558215611cc3579182015b82811115611cc2578251825591602001919060010190611ca7565b5b509050611cd09190611cd4565b5090565b5b80821115611ced576000816000905550600101611cd5565b5090565b6000611d04611cff84612716565b6126f1565b905082815260208101848484011115611d1c57600080fd5b611d278482856128ea565b509392505050565b6000611d42611d3d84612747565b6126f1565b905082815260208101848484011115611d5a57600080fd5b611d658482856128ea565b509392505050565b600081359050611d7c81612f7d565b92915050565b600081359050611d9181612f94565b92915050565b600081359050611da681612fab565b92915050565b600081519050611dbb81612fab565b92915050565b600082601f830112611dd257600080fd5b8135611de2848260208601611cf1565b91505092915050565b600082601f830112611dfc57600080fd5b8135611e0c848260208601611d2f565b91505092915050565b600081359050611e2481612fc2565b92915050565b600060208284031215611e3c57600080fd5b6000611e4a84828501611d6d565b91505092915050565b60008060408385031215611e6657600080fd5b6000611e7485828601611d6d565b9250506020611e8585828601611d6d565b9150509250929050565b600080600060608486031215611ea457600080fd5b6000611eb286828701611d6d565b9350506020611ec386828701611d6d565b9250506040611ed486828701611e15565b9150509250925092565b60008060008060808587031215611ef457600080fd5b6000611f0287828801611d6d565b9450506020611f1387828801611d6d565b9350506040611f2487828801611e15565b925050606085013567ffffffffffffffff811115611f4157600080fd5b611f4d87828801611dc1565b91505092959194509250565b60008060408385031215611f6c57600080fd5b6000611f7a85828601611d6d565b9250506020611f8b85828601611d82565b9150509250929050565b60008060408385031215611fa857600080fd5b6000611fb685828601611d6d565b9250506020611fc785828601611e15565b9150509250929050565b600060208284031215611fe357600080fd5b6000611ff184828501611d97565b91505092915050565b60006020828403121561200c57600080fd5b600061201a84828501611dac565b91505092915050565b60006020828403121561203557600080fd5b600082013567ffffffffffffffff81111561204f57600080fd5b61205b84828501611deb565b91505092915050565b60006020828403121561207657600080fd5b600061208484828501611e15565b91505092915050565b61209681612876565b82525050565b6120a581612888565b82525050565b60006120b682612778565b6120c0818561278e565b93506120d08185602086016128f9565b6120d981612ac5565b840191505092915050565b60006120ef82612783565b6120f9818561279f565b93506121098185602086016128f9565b61211281612ac5565b840191505092915050565b600061212882612783565b61213281856127b0565b93506121428185602086016128f9565b80840191505092915050565b600061215b60328361279f565b915061216682612ad6565b604082019050919050565b600061217e601c8361279f565b915061218982612b25565b602082019050919050565b60006121a160248361279f565b91506121ac82612b4e565b604082019050919050565b60006121c460198361279f565b91506121cf82612b9d565b602082019050919050565b60006121e7602c8361279f565b91506121f282612bc6565b604082019050919050565b600061220a60388361279f565b915061221582612c15565b604082019050919050565b600061222d602a8361279f565b915061223882612c64565b604082019050919050565b600061225060298361279f565b915061225b82612cb3565b604082019050919050565b6000612273602e8361279f565b915061227e82612d02565b604082019050919050565b600061229660208361279f565b91506122a182612d51565b602082019050919050565b60006122b960318361279f565b91506122c482612d7a565b604082019050919050565b60006122dc602c8361279f565b91506122e782612dc9565b604082019050919050565b60006122ff60298361279f565b915061230a82612e18565b604082019050919050565b6000612322602f8361279f565b915061232d82612e67565b604082019050919050565b600061234560218361279f565b915061235082612eb6565b604082019050919050565b600061236860318361279f565b915061237382612f05565b604082019050919050565b600061238b60208361279f565b915061239682612f54565b602082019050919050565b6123aa816128e0565b82525050565b60006123bc828561211d565b91506123c8828461211d565b91508190509392505050565b60006020820190506123e9600083018461208d565b92915050565b6000608082019050612404600083018761208d565b612411602083018661208d565b61241e60408301856123a1565b818103606083015261243081846120ab565b905095945050505050565b6000602082019050612450600083018461209c565b92915050565b6000602082019050818103600083015261247081846120e4565b905092915050565b600060208201905081810360008301526124918161214e565b9050919050565b600060208201905081810360008301526124b181612171565b9050919050565b600060208201905081810360008301526124d181612194565b9050919050565b600060208201905081810360008301526124f1816121b7565b9050919050565b60006020820190508181036000830152612511816121da565b9050919050565b60006020820190508181036000830152612531816121fd565b9050919050565b6000602082019050818103600083015261255181612220565b9050919050565b6000602082019050818103600083015261257181612243565b9050919050565b6000602082019050818103600083015261259181612266565b9050919050565b600060208201905081810360008301526125b181612289565b9050919050565b600060208201905081810360008301526125d1816122ac565b9050919050565b600060208201905081810360008301526125f1816122cf565b9050919050565b60006020820190508181036000830152612611816122f2565b9050919050565b6000602082019050818103600083015261263181612315565b9050919050565b6000602082019050818103600083015261265181612338565b9050919050565b600060208201905081810360008301526126718161235b565b9050919050565b600060208201905081810360008301526126918161237e565b9050919050565b60006020820190506126ad60008301846123a1565b92915050565b60006060820190506126c860008301866123a1565b6126d5602083018561208d565b81810360408301526126e781846120e4565b9050949350505050565b60006126fb61270c565b9050612707828261295e565b919050565b6000604051905090565b600067ffffffffffffffff82111561273157612730612a96565b5b61273a82612ac5565b9050602081019050919050565b600067ffffffffffffffff82111561276257612761612a96565b5b61276b82612ac5565b9050602081019050919050565b600081519050919050565b600081519050919050565b600082825260208201905092915050565b600082825260208201905092915050565b600081905092915050565b60006127c6826128e0565b91506127d1836128e0565b9250827fffffffffffffffffffffffffffffffffffffffffffffffffffffffffffffffff0382111561280657612805612a09565b5b828201905092915050565b600061281c826128e0565b9150612827836128e0565b92508261283757612836612a38565b5b828204905092915050565b600061284d826128e0565b9150612858836128e0565b92508282101561286b5761286a612a09565b5b828203905092915050565b6000612881826128c0565b9050919050565b60008115159050919050565b60007fffffffff0000000000000000000000000000000000000000000000000000000082169050919050565b600073ffffffffffffffffffffffffffffffffffffffff82169050919050565b6000819050919050565b82818337600083830152505050565b60005b838110156129175780820151818401526020810190506128fc565b83811115612926576000848401525b50505050565b6000600282049050600182168061294457607f821691505b6020821081141561295857612957612a67565b5b50919050565b61296782612ac5565b810181811067ffffffffffffffff8211171561298657612985612a96565b5b80604052505050565b600061299a826128e0565b91507fffffffffffffffffffffffffffffffffffffffffffffffffffffffffffffffff8214156129cd576129cc612a09565b5b600182019050919050565b60006129e3826128e0565b91506129ee836128e0565b9250826129fe576129fd612a38565b5b828206905092915050565b7f4e487b7100000000000000000000000000000000000000000000000000000000600052601160045260246000fd5b7f4e487b7100000000000000000000000000000000000000000000000000000000600052601260045260246000fd5b7f4e487b7100000000000000000000000000000000000000000000000000000000600052602260045260246000fd5b7f4e487b7100000000000000000000000000000000000000000000000000000000600052604160045260246000fd5b6000601f19601f8301169050919050565b7f4552433732313a207472616e7366657220746f206e6f6e20455243373231526560008201527f63656976657220696d706c656d656e7465720000000000000000000000000000602082015250565b7f4552433732313a20746f6b656e20616c7265616479206d696e74656400000000600082015250565b7f4552433732313a207472616e7366657220746f20746865207a65726f2061646460008201527f7265737300000000000000000000000000000000000000000000000000000000602082015250565b7f4552433732313a20617070726f766520746f2063616c6c657200000000000000600082015250565b7f4552433732313a206f70657261746f7220717565727920666f72206e6f6e657860008201527f697374656e7420746f6b656e0000000000000000000000000000000000000000602082015250565b7f4552433732313a20617070726f76652063616c6c6572206973206e6f74206f7760008201527f6e6572206e6f7220617070726f76656420666f7220616c6c0000000000000000602082015250565b7f4552433732313a2062616c616e636520717565727920666f7220746865207a6560008201527f726f206164647265737300000000000000000000000000000000000000000000602082015250565b7f4552433732313a206f776e657220717565727920666f72206e6f6e657869737460008201527f656e7420746f6b656e0000000000000000000000000000000000000000000000602082015250565b7f45524337323155524953746f726167653a2055524920736574206f66206e6f6e60008201527f6578697374656e7420746f6b656e000000000000000000000000000000000000602082015250565b7f4552433732313a206d696e7420746f20746865207a65726f2061646472657373600082015250565b7f45524337323155524953746f726167653a2055524920717565727920666f722060008201527f6e6f6e6578697374656e7420746f6b656e000000000000000000000000000000602082015250565b7f4552433732313a20617070726f76656420717565727920666f72206e6f6e657860008201527f697374656e7420746f6b656e0000000000000000000000000000000000000000602082015250565b7f4552433732313a207472616e73666572206f6620746f6b656e2074686174206960008201527f73206e6f74206f776e0000000000000000000000000000000000000000000000602082015250565b7f4552433732314d657461646174613a2055524920717565727920666f72206e6f60008201527f6e6578697374656e7420746f6b656e0000000000000000000000000000000000602082015250565b7f4552433732313a20617070726f76616c20746f2063757272656e74206f776e6560008201527f7200000000000000000000000000000000000000000000000000000000000000602082015250565b7f4552433732313a207472616e736665722063616c6c6572206973206e6f74206f60008201527f776e6572206e6f7220617070726f766564000000000000000000000000000000602082015250565b7f46726f6d2061646472657373206d75737420626520746f6b656e206f776e6572600082015250565b612f8681612876565b8114612f9157600080fd5b50565b612f9d81612888565b8114612fa857600080fd5b50565b612fb481612894565b8114612fbf57600080fd5b50565b612fcb816128e0565b8114612fd657600080fd5b5056fea264697066735822122076a01456d1d94b0a9c390bd36b64a503aca93fe552a71eae87d79cde3ac21e0c64736f6c63430008030033",
  "linkReferences": {},
  "deployedLinkReferences": {}
}