{
	"_format": "hh-sol-artifact-1",
	"contractName": "NFTMarket",
	"sourceName": "contracts/NFTMarket.sol",
	"abi": [
		{
			"inputs": [],
			"stateMutability": "nonpayable",
			"type": "constructor"
		},
		{
			"anonymous": false,
			"inputs": [
				{
					"indexed": true,
					"internalType": "uint256",
					"name": "itemId",
					"type": "uint256"
				},
				{
					"indexed": true,
					"internalType": "address",
					"name": "nftContract",
					"type": "address"
				},
				{
					"indexed": true,
					"internalType": "uint256",
					"name": "tokenId",
					"type": "uint256"
				},
				{
					"indexed": false,
					"internalType": "address",
					"name": "seller",
					"type": "address"
				},
				{
					"indexed": false,
					"internalType": "address",
					"name": "owner",
					"type": "address"
				},
				{
					"indexed": false,
					"internalType": "uint256",
					"name": "price",
					"type": "uint256"
				},
				{
					"indexed": false,
					"internalType": "bool",
					"name": "sold",
					"type": "bool"
				}
			],
			"name": "nftItemCreated",
			"type": "event"
		},
		{
			"stateMutability": "payable",
			"type": "fallback"
		},
		{
			"inputs": [
				{
					"internalType": "address",
					"name": "nftContract",
					"type": "address"
				},
				{
					"internalType": "uint256",
					"name": "tokenId",
					"type": "uint256"
				},
				{
					"internalType": "uint256",
					"name": "price",
					"type": "uint256"
				}
			],
			"name": "createMarketItem",
			"outputs": [],
			"stateMutability": "payable",
			"type": "function"
		},
		{
			"inputs": [
				{
					"internalType": "address",
					"name": "nftContract",
					"type": "address"
				},
				{
					"internalType": "uint256",
					"name": "itemId",
					"type": "uint256"
				}
			],
			"name": "createNftItemSale",
			"outputs": [],
			"stateMutability": "payable",
			"type": "function"
		},
		{
			"inputs": [],
			"name": "fetchMyNftItems",
			"outputs": [
				{
					"components": [
						{
							"internalType": "uint256",
							"name": "itemId",
							"type": "uint256"
						},
						{
							"internalType": "address",
							"name": "nftContract",
							"type": "address"
						},
						{
							"internalType": "uint256",
							"name": "tokenId",
							"type": "uint256"
						},
						{
							"internalType": "address payable",
							"name": "seller",
							"type": "address"
						},
						{
							"internalType": "address payable",
							"name": "owner",
							"type": "address"
						},
						{
							"internalType": "uint256",
							"name": "price",
							"type": "uint256"
						},
						{
							"internalType": "bool",
							"name": "sold",
							"type": "bool"
						}
					],
					"internalType": "struct NFTMarket.nftItem[]",
					"name": "",
					"type": "tuple[]"
				}
			],
			"stateMutability": "view",
			"type": "function"
		},
		{
			"inputs": [
				{
					"internalType": "uint256",
					"name": "itemId",
					"type": "uint256"
				}
			],
			"name": "fetchNftItemById",
			"outputs": [
				{
					"components": [
						{
							"internalType": "uint256",
							"name": "itemId",
							"type": "uint256"
						},
						{
							"internalType": "address",
							"name": "nftContract",
							"type": "address"
						},
						{
							"internalType": "uint256",
							"name": "tokenId",
							"type": "uint256"
						},
						{
							"internalType": "address payable",
							"name": "seller",
							"type": "address"
						},
						{
							"internalType": "address payable",
							"name": "owner",
							"type": "address"
						},
						{
							"internalType": "uint256",
							"name": "price",
							"type": "uint256"
						},
						{
							"internalType": "bool",
							"name": "sold",
							"type": "bool"
						}
					],
					"internalType": "struct NFTMarket.nftItem",
					"name": "",
					"type": "tuple"
				}
			],
			"stateMutability": "view",
			"type": "function"
		},
		{
			"inputs": [],
			"name": "fetchNftItems",
			"outputs": [
				{
					"components": [
						{
							"internalType": "uint256",
							"name": "itemId",
							"type": "uint256"
						},
						{
							"internalType": "address",
							"name": "nftContract",
							"type": "address"
						},
						{
							"internalType": "uint256",
							"name": "tokenId",
							"type": "uint256"
						},
						{
							"internalType": "address payable",
							"name": "seller",
							"type": "address"
						},
						{
							"internalType": "address payable",
							"name": "owner",
							"type": "address"
						},
						{
							"internalType": "uint256",
							"name": "price",
							"type": "uint256"
						},
						{
							"internalType": "bool",
							"name": "sold",
							"type": "bool"
						}
					],
					"internalType": "struct NFTMarket.nftItem[]",
					"name": "",
					"type": "tuple[]"
				}
			],
			"stateMutability": "view",
			"type": "function"
		},
		{
			"inputs": [],
			"name": "fetchNftItemsCreated",
			"outputs": [
				{
					"components": [
						{
							"internalType": "uint256",
							"name": "itemId",
							"type": "uint256"
						},
						{
							"internalType": "address",
							"name": "nftContract",
							"type": "address"
						},
						{
							"internalType": "uint256",
							"name": "tokenId",
							"type": "uint256"
						},
						{
							"internalType": "address payable",
							"name": "seller",
							"type": "address"
						},
						{
							"internalType": "address payable",
							"name": "owner",
							"type": "address"
						},
						{
							"internalType": "uint256",
							"name": "price",
							"type": "uint256"
						},
						{
							"internalType": "bool",
							"name": "sold",
							"type": "bool"
						}
					],
					"internalType": "struct NFTMarket.nftItem[]",
					"name": "",
					"type": "tuple[]"
				}
			],
			"stateMutability": "view",
			"type": "function"
		},
		{
			"inputs": [],
			"name": "getListingPrice",
			"outputs": [
				{
					"internalType": "uint256",
					"name": "",
					"type": "uint256"
				}
			],
			"stateMutability": "view",
			"type": "function"
		},
		{
			"stateMutability": "payable",
			"type": "receive"
		}
	],
	"bytecode": "0x608060405266038d7ea4c6800060045534801561001b57600080fd5b50600160008190555033600360006101000a81548173ffffffffffffffffffffffffffffffffffffffff021916908373ffffffffffffffffffffffffffffffffffffffff160217905550611c87806100746000396000f3fe6080604052600436106100745760003560e01c8063e5e3907c1161004e578063e5e3907c146100ef578063ebecee491461010b578063f3032fd414610136578063fff3abc3146101615761007b565b806312e855851461007d57806358eb2df5146100a8578063dcc84834146100c45761007b565b3661007b57005b005b34801561008957600080fd5b5061009261019e565b60405161009f919061193b565b60405180910390f35b6100c260048036038101906100bd9190611488565b6101a8565b005b3480156100d057600080fd5b506100d961050c565b6040516100e6919061185e565b60405180910390f35b6101096004803603810190610104919061144c565b610882565b005b34801561011757600080fd5b50610120610ba1565b60405161012d919061185e565b60405180910390f35b34801561014257600080fd5b5061014b610f17565b604051610158919061185e565b60405180910390f35b34801561016d57600080fd5b50610188600480360381019061018391906114d7565b611215565b6040516101959190611920565b60405180910390f35b6000600454905090565b600260005414156101ee576040517f08c379a00000000000000000000000000000000000000000000000000000000081526004016101e5906118e0565b60405180910390fd5b600260008190555060008111610239576040517f08c379a000000000000000000000000000000000000000000000000000000000815260040161023090611900565b60405180910390fd5b600454341461027d576040517f08c379a0000000000000000000000000000000000000000000000000000000008152600401610274906118c0565b60405180910390fd5b6000610289600161137d565b90506040518060e001604052808281526020018573ffffffffffffffffffffffffffffffffffffffff1681526020018481526020013373ffffffffffffffffffffffffffffffffffffffff168152602001600073ffffffffffffffffffffffffffffffffffffffff16815260200183815260200160001515815250600560008381526020019081526020016000206000820151816000015560208201518160010160006101000a81548173ffffffffffffffffffffffffffffffffffffffff021916908373ffffffffffffffffffffffffffffffffffffffff1602179055506040820151816002015560608201518160030160006101000a81548173ffffffffffffffffffffffffffffffffffffffff021916908373ffffffffffffffffffffffffffffffffffffffff16021790555060808201518160040160006101000a81548173ffffffffffffffffffffffffffffffffffffffff021916908373ffffffffffffffffffffffffffffffffffffffff16021790555060a0820151816005015560c08201518160060160006101000a81548160ff0219169083151502179055509050508373ffffffffffffffffffffffffffffffffffffffff166323b872dd3330866040518463ffffffff1660e01b815260040161046a939291906117e2565b600060405180830381600087803b15801561048457600080fd5b505af1158015610498573d6000803e3d6000fd5b505050506104a6600161138b565b828473ffffffffffffffffffffffffffffffffffffffff16827f52cb9ce76f1f1bca8f559defa6dc11e9ace0c7cf388addf4eef885f2ffdbd2eb3360008760006040516104f69493929190611819565b60405180910390a4506001600081905550505050565b6060600061051a600161137d565b905060008060005b838110156105b7573373ffffffffffffffffffffffffffffffffffffffff166005600083815260200190815260200160002060040160009054906101000a900473ffffffffffffffffffffffffffffffffffffffff1673ffffffffffffffffffffffffffffffffffffffff1614156105a4576001836105a191906119ab565b92505b80806105af90611a8f565b915050610522565b5060008267ffffffffffffffff8111156105fa577f4e487b7100000000000000000000000000000000000000000000000000000000600052604160045260246000fd5b60405190808252806020026020018201604052801561063357816020015b6106206113a1565b8152602001906001900390816106185790505b50905060005b84811015610877573373ffffffffffffffffffffffffffffffffffffffff166005600083815260200190815260200160002060040160009054906101000a900473ffffffffffffffffffffffffffffffffffffffff1673ffffffffffffffffffffffffffffffffffffffff1614156108645760008190506000600560008381526020019081526020016000209050806040518060e0016040529081600082015481526020016001820160009054906101000a900473ffffffffffffffffffffffffffffffffffffffff1673ffffffffffffffffffffffffffffffffffffffff1673ffffffffffffffffffffffffffffffffffffffff168152602001600282015481526020016003820160009054906101000a900473ffffffffffffffffffffffffffffffffffffffff1673ffffffffffffffffffffffffffffffffffffffff1673ffffffffffffffffffffffffffffffffffffffff1681526020016004820160009054906101000a900473ffffffffffffffffffffffffffffffffffffffff1673ffffffffffffffffffffffffffffffffffffffff1673ffffffffffffffffffffffffffffffffffffffff168152602001600582015481526020016006820160009054906101000a900460ff161515151581525050848681518110610847577f4e487b7100000000000000000000000000000000000000000000000000000000600052603260045260246000fd5b602002602001018190525060018561085f91906119ab565b945050505b808061086f90611a8f565b915050610639565b508094505050505090565b600260005414156108c8576040517f08c379a00000000000000000000000000000000000000000000000000000000081526004016108bf906118e0565b60405180910390fd5b6002600081905550600060056000838152602001908152602001600020600201549050600060056000848152602001908152602001600020600501549050803414610948576040517f08c379a000000000000000000000000000000000000000000000000000000000815260040161093f906118a0565b60405180910390fd5b60006005600085815260200190815260200160002060030160009054906101000a900473ffffffffffffffffffffffffffffffffffffffff1673ffffffffffffffffffffffffffffffffffffffff16346040516109a4906117cd565b60006040518083038185875af1925050503d80600081146109e1576040519150601f19603f3d011682016040523d82523d6000602084013e6109e6565b606091505b5050905080610a2a576040517f08c379a0000000000000000000000000000000000000000000000000000000008152600401610a2190611880565b60405180910390fd5b8473ffffffffffffffffffffffffffffffffffffffff166323b872dd3033866040518463ffffffff1660e01b8152600401610a67939291906117e2565b600060405180830381600087803b158015610a8157600080fd5b505af1158015610a95573d6000803e3d6000fd5b50505050336005600086815260200190815260200160002060040160006101000a81548173ffffffffffffffffffffffffffffffffffffffff021916908373ffffffffffffffffffffffffffffffffffffffff16021790555060016005600086815260200190815260200160002060060160006101000a81548160ff021916908315150217905550610b27600261138b565b600360009054906101000a900473ffffffffffffffffffffffffffffffffffffffff1673ffffffffffffffffffffffffffffffffffffffff166108fc6004549081150290604051600060405180830381858888f19350505050158015610b91573d6000803e3d6000fd5b5050505060016000819055505050565b60606000610baf600161137d565b905060008060005b83811015610c4c573373ffffffffffffffffffffffffffffffffffffffff166005600083815260200190815260200160002060030160009054906101000a900473ffffffffffffffffffffffffffffffffffffffff1673ffffffffffffffffffffffffffffffffffffffff161415610c3957600183610c3691906119ab565b92505b8080610c4490611a8f565b915050610bb7565b5060008267ffffffffffffffff811115610c8f577f4e487b7100000000000000000000000000000000000000000000000000000000600052604160045260246000fd5b604051908082528060200260200182016040528015610cc857816020015b610cb56113a1565b815260200190600190039081610cad5790505b50905060005b84811015610f0c573373ffffffffffffffffffffffffffffffffffffffff166005600083815260200190815260200160002060030160009054906101000a900473ffffffffffffffffffffffffffffffffffffffff1673ffffffffffffffffffffffffffffffffffffffff161415610ef95760008190506000600560008381526020019081526020016000209050806040518060e0016040529081600082015481526020016001820160009054906101000a900473ffffffffffffffffffffffffffffffffffffffff1673ffffffffffffffffffffffffffffffffffffffff1673ffffffffffffffffffffffffffffffffffffffff168152602001600282015481526020016003820160009054906101000a900473ffffffffffffffffffffffffffffffffffffffff1673ffffffffffffffffffffffffffffffffffffffff1673ffffffffffffffffffffffffffffffffffffffff1681526020016004820160009054906101000a900473ffffffffffffffffffffffffffffffffffffffff1673ffffffffffffffffffffffffffffffffffffffff1673ffffffffffffffffffffffffffffffffffffffff168152602001600582015481526020016006820160009054906101000a900460ff161515151581525050848681518110610edc577f4e487b7100000000000000000000000000000000000000000000000000000000600052603260045260246000fd5b6020026020010181905250600185610ef491906119ab565b945050505b8080610f0490611a8f565b915050610cce565b508094505050505090565b60606000610f25600161137d565b90506000610f33600261137d565b610f3d600161137d565b610f479190611a01565b90506000808267ffffffffffffffff811115610f8c577f4e487b7100000000000000000000000000000000000000000000000000000000600052604160045260246000fd5b604051908082528060200260200182016040528015610fc557816020015b610fb26113a1565b815260200190600190039081610faa5790505b50905060005b8481101561120a57600073ffffffffffffffffffffffffffffffffffffffff166005600083815260200190815260200160002060040160009054906101000a900473ffffffffffffffffffffffffffffffffffffffff1673ffffffffffffffffffffffffffffffffffffffff1614156111f75760008190506000600560008381526020019081526020016000209050806040518060e0016040529081600082015481526020016001820160009054906101000a900473ffffffffffffffffffffffffffffffffffffffff1673ffffffffffffffffffffffffffffffffffffffff1673ffffffffffffffffffffffffffffffffffffffff168152602001600282015481526020016003820160009054906101000a900473ffffffffffffffffffffffffffffffffffffffff1673ffffffffffffffffffffffffffffffffffffffff1673ffffffffffffffffffffffffffffffffffffffff1681526020016004820160009054906101000a900473ffffffffffffffffffffffffffffffffffffffff1673ffffffffffffffffffffffffffffffffffffffff1673ffffffffffffffffffffffffffffffffffffffff168152602001600582015481526020016006820160009054906101000a900460ff1615151515815250508486815181106111da577f4e487b7100000000000000000000000000000000000000000000000000000000600052603260045260246000fd5b60200260200101819052506001856111f291906119ab565b945050505b808061120290611a8f565b915050610fcb565b508094505050505090565b61121d6113a1565b600560008381526020019081526020016000206040518060e0016040529081600082015481526020016001820160009054906101000a900473ffffffffffffffffffffffffffffffffffffffff1673ffffffffffffffffffffffffffffffffffffffff1673ffffffffffffffffffffffffffffffffffffffff168152602001600282015481526020016003820160009054906101000a900473ffffffffffffffffffffffffffffffffffffffff1673ffffffffffffffffffffffffffffffffffffffff1673ffffffffffffffffffffffffffffffffffffffff1681526020016004820160009054906101000a900473ffffffffffffffffffffffffffffffffffffffff1673ffffffffffffffffffffffffffffffffffffffff1673ffffffffffffffffffffffffffffffffffffffff168152602001600582015481526020016006820160009054906101000a900460ff1615151515815250509050919050565b600081600001549050919050565b6001816000016000828254019250508190555050565b6040518060e0016040528060008152602001600073ffffffffffffffffffffffffffffffffffffffff16815260200160008152602001600073ffffffffffffffffffffffffffffffffffffffff168152602001600073ffffffffffffffffffffffffffffffffffffffff168152602001600081526020016000151581525090565b60008135905061143181611c23565b92915050565b60008135905061144681611c3a565b92915050565b6000806040838503121561145f57600080fd5b600061146d85828601611422565b925050602061147e85828601611437565b9150509250929050565b60008060006060848603121561149d57600080fd5b60006114ab86828701611422565b93505060206114bc86828701611437565b92505060406114cd86828701611437565b9150509250925092565b6000602082840312156114e957600080fd5b60006114f784828501611437565b91505092915050565b600061150c8383611693565b60e08301905092915050565b61152181611a47565b82525050565b61153081611a35565b82525050565b61153f81611a35565b82525050565b600061155082611966565b61155a818561197e565b935061156583611956565b8060005b8381101561159657815161157d8882611500565b975061158883611971565b925050600181019050611569565b5085935050505092915050565b6115ac81611a59565b82525050565b6115bb81611a59565b82525050565b60006115ce600f8361199a565b91506115d982611b07565b602082019050919050565b60006115f1603f8361199a565b91506115fc82611b30565b604082019050919050565b600061161460248361199a565b915061161f82611b7f565b604082019050919050565b600061163760008361198f565b915061164282611bce565b600082019050919050565b600061165a601f8361199a565b915061166582611bd1565b602082019050919050565b600061167d601c8361199a565b915061168882611bfa565b602082019050919050565b60e0820160008201516116a960008501826117af565b5060208201516116bc6020850182611527565b5060408201516116cf60408501826117af565b5060608201516116e26060850182611518565b5060808201516116f56080850182611518565b5060a082015161170860a08501826117af565b5060c082015161171b60c08501826115a3565b50505050565b60e08201600082015161173760008501826117af565b50602082015161174a6020850182611527565b50604082015161175d60408501826117af565b5060608201516117706060850182611518565b5060808201516117836080850182611518565b5060a082015161179660a08501826117af565b5060c08201516117a960c08501826115a3565b50505050565b6117b881611a85565b82525050565b6117c781611a85565b82525050565b60006117d88261162a565b9150819050919050565b60006060820190506117f76000830186611536565b6118046020830185611536565b61181160408301846117be565b949350505050565b600060808201905061182e6000830187611536565b61183b6020830186611536565b61184860408301856117be565b61185560608301846115b2565b95945050505050565b600060208201905081810360008301526118788184611545565b905092915050565b60006020820190508181036000830152611899816115c1565b9050919050565b600060208201905081810360008301526118b9816115e4565b9050919050565b600060208201905081810360008301526118d981611607565b9050919050565b600060208201905081810360008301526118f98161164d565b9050919050565b6000602082019050818103600083015261191981611670565b9050919050565b600060e0820190506119356000830184611721565b92915050565b600060208201905061195060008301846117be565b92915050565b6000819050602082019050919050565b600081519050919050565b6000602082019050919050565b600082825260208201905092915050565b600081905092915050565b600082825260208201905092915050565b60006119b682611a85565b91506119c183611a85565b9250827fffffffffffffffffffffffffffffffffffffffffffffffffffffffffffffffff038211156119f6576119f5611ad8565b5b828201905092915050565b6000611a0c82611a85565b9150611a1783611a85565b925082821015611a2a57611a29611ad8565b5b828203905092915050565b6000611a4082611a65565b9050919050565b6000611a5282611a65565b9050919050565b60008115159050919050565b600073ffffffffffffffffffffffffffffffffffffffff82169050919050565b6000819050919050565b6000611a9a82611a85565b91507fffffffffffffffffffffffffffffffffffffffffffffffffffffffffffffffff821415611acd57611acc611ad8565b5b600182019050919050565b7f4e487b7100000000000000000000000000000000000000000000000000000000600052601160045260246000fd5b7f5472616e73666572206661696c65640000000000000000000000000000000000600082015250565b7f506c65617365207375626d6974207468652061736b656420707269636520696e60008201527f206f7264657220746f20636f6d706c6574652074686520707572636861736500602082015250565b7f5072696365206d75737420626520657175616c20746f206c697374696e67207060008201527f7269636500000000000000000000000000000000000000000000000000000000602082015250565b50565b7f5265656e7472616e637947756172643a207265656e7472616e742063616c6c00600082015250565b7f5072696365206d7573742062652067726561746572207468616e203000000000600082015250565b611c2c81611a35565b8114611c3757600080fd5b50565b611c4381611a85565b8114611c4e57600080fd5b5056fea264697066735822122008c5d249915c1c6536da5bdffb79d2ea9c13f850849807324d147434444e407c64736f6c63430008030033",
	"linkReferences": {},
	"deployedLinkReferences": {}
}