{
  "_format": "hh-sol-artifact-1",
  "contractName": "NFTMarket",
  "sourceName": "contracts/NFTMarket.sol",
  "abi": [
    {
      "inputs": [],
      "stateMutability": "nonpayable",
      "type": "constructor"
    },
    {
      "anonymous": false,
      "inputs": [
        {
          "indexed": true,
          "internalType": "uint256",
          "name": "itemId",
          "type": "uint256"
        },
        {
          "indexed": true,
          "internalType": "address",
          "name": "nftContract",
          "type": "address"
        },
        {
          "indexed": true,
          "internalType": "uint256",
          "name": "tokenId",
          "type": "uint256"
        },
        {
          "indexed": false,
          "internalType": "address",
          "name": "seller",
          "type": "address"
        },
        {
          "indexed": false,
          "internalType": "address",
          "name": "owner",
          "type": "address"
        },
        {
          "indexed": false,
          "internalType": "uint256",
          "name": "price",
          "type": "uint256"
        },
        {
          "indexed": false,
          "internalType": "bool",
          "name": "sold",
          "type": "bool"
        }
      ],
      "name": "nftItemCreated",
      "type": "event"
    },
    {
      "stateMutability": "payable",
      "type": "fallback"
    },
    {
      "inputs": [
        {
          "internalType": "address",
          "name": "nftContract",
          "type": "address"
        },
        {
          "internalType": "uint256",
          "name": "tokenId",
          "type": "uint256"
        },
        {
          "internalType": "uint256",
          "name": "price",
          "type": "uint256"
        }
      ],
      "name": "createMarketItem",
      "outputs": [],
      "stateMutability": "payable",
      "type": "function"
    },
    {
      "inputs": [
        {
          "internalType": "address",
          "name": "nftContract",
          "type": "address"
        },
        {
          "internalType": "uint256",
          "name": "itemId",
          "type": "uint256"
        }
      ],
      "name": "createNftItemSale",
      "outputs": [],
      "stateMutability": "payable",
      "type": "function"
    },
    {
      "inputs": [],
      "name": "fetchMyNftItems",
      "outputs": [
        {
          "components": [
            {
              "internalType": "uint256",
              "name": "itemId",
              "type": "uint256"
            },
            {
              "internalType": "address",
              "name": "nftContract",
              "type": "address"
            },
            {
              "internalType": "uint256",
              "name": "tokenId",
              "type": "uint256"
            },
            {
              "internalType": "address payable",
              "name": "seller",
              "type": "address"
            },
            {
              "internalType": "address payable",
              "name": "owner",
              "type": "address"
            },
            {
              "internalType": "uint256",
              "name": "price",
              "type": "uint256"
            },
            {
              "internalType": "bool",
              "name": "sold",
              "type": "bool"
            }
          ],
          "internalType": "struct NFTMarket.nftItem[]",
          "name": "",
          "type": "tuple[]"
        }
      ],
      "stateMutability": "view",
      "type": "function"
    },
    {
      "inputs": [
        {
          "internalType": "uint256",
          "name": "itemId",
          "type": "uint256"
        }
      ],
      "name": "fetchNftItemById",
      "outputs": [
        {
          "components": [
            {
              "internalType": "uint256",
              "name": "itemId",
              "type": "uint256"
            },
            {
              "internalType": "address",
              "name": "nftContract",
              "type": "address"
            },
            {
              "internalType": "uint256",
              "name": "tokenId",
              "type": "uint256"
            },
            {
              "internalType": "address payable",
              "name": "seller",
              "type": "address"
            },
            {
              "internalType": "address payable",
              "name": "owner",
              "type": "address"
            },
            {
              "internalType": "uint256",
              "name": "price",
              "type": "uint256"
            },
            {
              "internalType": "bool",
              "name": "sold",
              "type": "bool"
            }
          ],
          "internalType": "struct NFTMarket.nftItem",
          "name": "",
          "type": "tuple"
        }
      ],
      "stateMutability": "view",
      "type": "function"
    },
    {
      "inputs": [],
      "name": "fetchNftItems",
      "outputs": [
        {
          "components": [
            {
              "internalType": "uint256",
              "name": "itemId",
              "type": "uint256"
            },
            {
              "internalType": "address",
              "name": "nftContract",
              "type": "address"
            },
            {
              "internalType": "uint256",
              "name": "tokenId",
              "type": "uint256"
            },
            {
              "internalType": "address payable",
              "name": "seller",
              "type": "address"
            },
            {
              "internalType": "address payable",
              "name": "owner",
              "type": "address"
            },
            {
              "internalType": "uint256",
              "name": "price",
              "type": "uint256"
            },
            {
              "internalType": "bool",
              "name": "sold",
              "type": "bool"
            }
          ],
          "internalType": "struct NFTMarket.nftItem[]",
          "name": "",
          "type": "tuple[]"
        }
      ],
      "stateMutability": "view",
      "type": "function"
    },
    {
      "inputs": [],
      "name": "fetchNftItemsCreated",
      "outputs": [
        {
          "components": [
            {
              "internalType": "uint256",
              "name": "itemId",
              "type": "uint256"
            },
            {
              "internalType": "address",
              "name": "nftContract",
              "type": "address"
            },
            {
              "internalType": "uint256",
              "name": "tokenId",
              "type": "uint256"
            },
            {
              "internalType": "address payable",
              "name": "seller",
              "type": "address"
            },
            {
              "internalType": "address payable",
              "name": "owner",
              "type": "address"
            },
            {
              "internalType": "uint256",
              "name": "price",
              "type": "uint256"
            },
            {
              "internalType": "bool",
              "name": "sold",
              "type": "bool"
            }
          ],
          "internalType": "struct NFTMarket.nftItem[]",
          "name": "",
          "type": "tuple[]"
        }
      ],
      "stateMutability": "view",
      "type": "function"
    },
    {
      "inputs": [],
      "name": "getListingPrice",
      "outputs": [
        {
          "internalType": "uint256",
          "name": "",
          "type": "uint256"
        }
      ],
      "stateMutability": "view",
      "type": "function"
    },
    {
      "inputs": [
        {
          "internalType": "address",
          "name": "nftContract",
          "type": "address"
        },
        {
          "internalType": "uint256",
          "name": "tokenId",
          "type": "uint256"
        },
        {
          "internalType": "uint256",
          "name": "price",
          "type": "uint256"
        }
      ],
      "name": "resellNftItem",
      "outputs": [],
      "stateMutability": "payable",
      "type": "function"
    },
    {
      "stateMutability": "payable",
      "type": "receive"
    }
  ],
  "bytecode": "0x608060405266038d7ea4c6800060045534801561001b57600080fd5b50600160008190555033600360006101000a81548173ffffffffffffffffffffffffffffffffffffffff021916908373ffffffffffffffffffffffffffffffffffffffff160217905550612062806100746000396000f3fe60806040526004361061007f5760003560e01c8063e5e3907c1161004e578063e5e3907c14610116578063ebecee4914610132578063f3032fd41461015d578063fff3abc31461018857610086565b806312e85585146100885780631e9d8eaf146100b357806358eb2df5146100cf578063dcc84834146100eb57610086565b3661008657005b005b34801561009457600080fd5b5061009d6101c5565b6040516100aa9190611c9e565b60405180910390f35b6100cd60048036038101906100c89190611765565b6101cf565b005b6100e960048036038101906100e49190611765565b610429565b005b3480156100f757600080fd5b5061010061078d565b60405161010d9190611b81565b60405180910390f35b610130600480360381019061012b9190611729565b610b03565b005b34801561013e57600080fd5b50610147610e22565b6040516101549190611b81565b60405180910390f35b34801561016957600080fd5b50610172611198565b60405161017f9190611b81565b60405180910390f35b34801561019457600080fd5b506101af60048036038101906101aa91906117b4565b611496565b6040516101bc9190611c83565b60405180910390f35b6000600454905090565b3373ffffffffffffffffffffffffffffffffffffffff166005600084815260200190815260200160002060040160009054906101000a900473ffffffffffffffffffffffffffffffffffffffff1673ffffffffffffffffffffffffffffffffffffffff1614610273576040517f08c379a000000000000000000000000000000000000000000000000000000000815260040161026a90611c03565b60405180910390fd5b60045434146102b7576040517f08c379a00000000000000000000000000000000000000000000000000000000081526004016102ae90611c23565b60405180910390fd5b60006005600084815260200190815260200160002060060160006101000a81548160ff021916908315150217905550806005600084815260200190815260200160002060050181905550336005600084815260200190815260200160002060030160006101000a81548173ffffffffffffffffffffffffffffffffffffffff021916908373ffffffffffffffffffffffffffffffffffffffff160217905550306005600084815260200190815260200160002060040160006101000a81548173ffffffffffffffffffffffffffffffffffffffff021916908373ffffffffffffffffffffffffffffffffffffffff1602179055506103b560026115fe565b8273ffffffffffffffffffffffffffffffffffffffff166323b872dd3330856040518463ffffffff1660e01b81526004016103f293929190611b05565b600060405180830381600087803b15801561040c57600080fd5b505af1158015610420573d6000803e3d6000fd5b50505050505050565b6002600054141561046f576040517f08c379a000000000000000000000000000000000000000000000000000000000815260040161046690611c43565b60405180910390fd5b6002600081905550600081116104ba576040517f08c379a00000000000000000000000000000000000000000000000000000000081526004016104b190611c63565b60405180910390fd5b60045434146104fe576040517f08c379a00000000000000000000000000000000000000000000000000000000081526004016104f590611c23565b60405180910390fd5b600061050a600161165a565b90506040518060e001604052808281526020018573ffffffffffffffffffffffffffffffffffffffff1681526020018481526020013373ffffffffffffffffffffffffffffffffffffffff168152602001600073ffffffffffffffffffffffffffffffffffffffff16815260200183815260200160001515815250600560008381526020019081526020016000206000820151816000015560208201518160010160006101000a81548173ffffffffffffffffffffffffffffffffffffffff021916908373ffffffffffffffffffffffffffffffffffffffff1602179055506040820151816002015560608201518160030160006101000a81548173ffffffffffffffffffffffffffffffffffffffff021916908373ffffffffffffffffffffffffffffffffffffffff16021790555060808201518160040160006101000a81548173ffffffffffffffffffffffffffffffffffffffff021916908373ffffffffffffffffffffffffffffffffffffffff16021790555060a0820151816005015560c08201518160060160006101000a81548160ff0219169083151502179055509050508373ffffffffffffffffffffffffffffffffffffffff166323b872dd3330866040518463ffffffff1660e01b81526004016106eb93929190611b05565b600060405180830381600087803b15801561070557600080fd5b505af1158015610719573d6000803e3d6000fd5b505050506107276001611668565b828473ffffffffffffffffffffffffffffffffffffffff16827f52cb9ce76f1f1bca8f559defa6dc11e9ace0c7cf388addf4eef885f2ffdbd2eb3360008760006040516107779493929190611b3c565b60405180910390a4506001600081905550505050565b6060600061079b600161165a565b905060008060005b83811015610838573373ffffffffffffffffffffffffffffffffffffffff166005600083815260200190815260200160002060040160009054906101000a900473ffffffffffffffffffffffffffffffffffffffff1673ffffffffffffffffffffffffffffffffffffffff161415610825576001836108229190611d0e565b92505b808061083090611df2565b9150506107a3565b5060008267ffffffffffffffff81111561087b577f4e487b7100000000000000000000000000000000000000000000000000000000600052604160045260246000fd5b6040519080825280602002602001820160405280156108b457816020015b6108a161167e565b8152602001906001900390816108995790505b50905060005b84811015610af8573373ffffffffffffffffffffffffffffffffffffffff166005600083815260200190815260200160002060040160009054906101000a900473ffffffffffffffffffffffffffffffffffffffff1673ffffffffffffffffffffffffffffffffffffffff161415610ae55760008190506000600560008381526020019081526020016000209050806040518060e0016040529081600082015481526020016001820160009054906101000a900473ffffffffffffffffffffffffffffffffffffffff1673ffffffffffffffffffffffffffffffffffffffff1673ffffffffffffffffffffffffffffffffffffffff168152602001600282015481526020016003820160009054906101000a900473ffffffffffffffffffffffffffffffffffffffff1673ffffffffffffffffffffffffffffffffffffffff1673ffffffffffffffffffffffffffffffffffffffff1681526020016004820160009054906101000a900473ffffffffffffffffffffffffffffffffffffffff1673ffffffffffffffffffffffffffffffffffffffff1673ffffffffffffffffffffffffffffffffffffffff168152602001600582015481526020016006820160009054906101000a900460ff161515151581525050848681518110610ac8577f4e487b7100000000000000000000000000000000000000000000000000000000600052603260045260246000fd5b6020026020010181905250600185610ae09190611d0e565b945050505b8080610af090611df2565b9150506108ba565b508094505050505090565b60026000541415610b49576040517f08c379a0000000000000000000000000000000000000000000000000000000008152600401610b4090611c43565b60405180910390fd5b6002600081905550600060056000838152602001908152602001600020600201549050600060056000848152602001908152602001600020600501549050803414610bc9576040517f08c379a0000000000000000000000000000000000000000000000000000000008152600401610bc090611be3565b60405180910390fd5b60006005600085815260200190815260200160002060030160009054906101000a900473ffffffffffffffffffffffffffffffffffffffff1673ffffffffffffffffffffffffffffffffffffffff1634604051610c2590611af0565b60006040518083038185875af1925050503d8060008114610c62576040519150601f19603f3d011682016040523d82523d6000602084013e610c67565b606091505b5050905080610cab576040517f08c379a0000000000000000000000000000000000000000000000000000000008152600401610ca290611bc3565b60405180910390fd5b8473ffffffffffffffffffffffffffffffffffffffff166323b872dd3033866040518463ffffffff1660e01b8152600401610ce893929190611b05565b600060405180830381600087803b158015610d0257600080fd5b505af1158015610d16573d6000803e3d6000fd5b50505050336005600086815260200190815260200160002060040160006101000a81548173ffffffffffffffffffffffffffffffffffffffff021916908373ffffffffffffffffffffffffffffffffffffffff16021790555060016005600086815260200190815260200160002060060160006101000a81548160ff021916908315150217905550610da86002611668565b600360009054906101000a900473ffffffffffffffffffffffffffffffffffffffff1673ffffffffffffffffffffffffffffffffffffffff166108fc6004549081150290604051600060405180830381858888f19350505050158015610e12573d6000803e3d6000fd5b5050505060016000819055505050565b60606000610e30600161165a565b905060008060005b83811015610ecd573373ffffffffffffffffffffffffffffffffffffffff166005600083815260200190815260200160002060030160009054906101000a900473ffffffffffffffffffffffffffffffffffffffff1673ffffffffffffffffffffffffffffffffffffffff161415610eba57600183610eb79190611d0e565b92505b8080610ec590611df2565b915050610e38565b5060008267ffffffffffffffff811115610f10577f4e487b7100000000000000000000000000000000000000000000000000000000600052604160045260246000fd5b604051908082528060200260200182016040528015610f4957816020015b610f3661167e565b815260200190600190039081610f2e5790505b50905060005b8481101561118d573373ffffffffffffffffffffffffffffffffffffffff166005600083815260200190815260200160002060030160009054906101000a900473ffffffffffffffffffffffffffffffffffffffff1673ffffffffffffffffffffffffffffffffffffffff16141561117a5760008190506000600560008381526020019081526020016000209050806040518060e0016040529081600082015481526020016001820160009054906101000a900473ffffffffffffffffffffffffffffffffffffffff1673ffffffffffffffffffffffffffffffffffffffff1673ffffffffffffffffffffffffffffffffffffffff168152602001600282015481526020016003820160009054906101000a900473ffffffffffffffffffffffffffffffffffffffff1673ffffffffffffffffffffffffffffffffffffffff1673ffffffffffffffffffffffffffffffffffffffff1681526020016004820160009054906101000a900473ffffffffffffffffffffffffffffffffffffffff1673ffffffffffffffffffffffffffffffffffffffff1673ffffffffffffffffffffffffffffffffffffffff168152602001600582015481526020016006820160009054906101000a900460ff16151515158152505084868151811061115d577f4e487b7100000000000000000000000000000000000000000000000000000000600052603260045260246000fd5b60200260200101819052506001856111759190611d0e565b945050505b808061118590611df2565b915050610f4f565b508094505050505090565b606060006111a6600161165a565b905060006111b4600261165a565b6111be600161165a565b6111c89190611d64565b90506000808267ffffffffffffffff81111561120d577f4e487b7100000000000000000000000000000000000000000000000000000000600052604160045260246000fd5b60405190808252806020026020018201604052801561124657816020015b61123361167e565b81526020019060019003908161122b5790505b50905060005b8481101561148b57600073ffffffffffffffffffffffffffffffffffffffff166005600083815260200190815260200160002060040160009054906101000a900473ffffffffffffffffffffffffffffffffffffffff1673ffffffffffffffffffffffffffffffffffffffff1614156114785760008190506000600560008381526020019081526020016000209050806040518060e0016040529081600082015481526020016001820160009054906101000a900473ffffffffffffffffffffffffffffffffffffffff1673ffffffffffffffffffffffffffffffffffffffff1673ffffffffffffffffffffffffffffffffffffffff168152602001600282015481526020016003820160009054906101000a900473ffffffffffffffffffffffffffffffffffffffff1673ffffffffffffffffffffffffffffffffffffffff1673ffffffffffffffffffffffffffffffffffffffff1681526020016004820160009054906101000a900473ffffffffffffffffffffffffffffffffffffffff1673ffffffffffffffffffffffffffffffffffffffff1673ffffffffffffffffffffffffffffffffffffffff168152602001600582015481526020016006820160009054906101000a900460ff16151515158152505084868151811061145b577f4e487b7100000000000000000000000000000000000000000000000000000000600052603260045260246000fd5b60200260200101819052506001856114739190611d0e565b945050505b808061148390611df2565b91505061124c565b508094505050505090565b61149e61167e565b600560008381526020019081526020016000206040518060e0016040529081600082015481526020016001820160009054906101000a900473ffffffffffffffffffffffffffffffffffffffff1673ffffffffffffffffffffffffffffffffffffffff1673ffffffffffffffffffffffffffffffffffffffff168152602001600282015481526020016003820160009054906101000a900473ffffffffffffffffffffffffffffffffffffffff1673ffffffffffffffffffffffffffffffffffffffff1673ffffffffffffffffffffffffffffffffffffffff1681526020016004820160009054906101000a900473ffffffffffffffffffffffffffffffffffffffff1673ffffffffffffffffffffffffffffffffffffffff1673ffffffffffffffffffffffffffffffffffffffff168152602001600582015481526020016006820160009054906101000a900460ff1615151515815250509050919050565b6000816000015490506000811161164a576040517f08c379a000000000000000000000000000000000000000000000000000000000815260040161164190611ba3565b60405180910390fd5b6001810382600001819055505050565b600081600001549050919050565b6001816000016000828254019250508190555050565b6040518060e0016040528060008152602001600073ffffffffffffffffffffffffffffffffffffffff16815260200160008152602001600073ffffffffffffffffffffffffffffffffffffffff168152602001600073ffffffffffffffffffffffffffffffffffffffff168152602001600081526020016000151581525090565b60008135905061170e81611ffe565b92915050565b60008135905061172381612015565b92915050565b6000806040838503121561173c57600080fd5b600061174a858286016116ff565b925050602061175b85828601611714565b9150509250929050565b60008060006060848603121561177a57600080fd5b6000611788868287016116ff565b935050602061179986828701611714565b92505060406117aa86828701611714565b9150509250925092565b6000602082840312156117c657600080fd5b60006117d484828501611714565b91505092915050565b60006117e983836119b6565b60e08301905092915050565b6117fe81611daa565b82525050565b61180d81611d98565b82525050565b61181c81611d98565b82525050565b600061182d82611cc9565b6118378185611ce1565b935061184283611cb9565b8060005b8381101561187357815161185a88826117dd565b975061186583611cd4565b925050600181019050611846565b5085935050505092915050565b61188981611dbc565b82525050565b61189881611dbc565b82525050565b60006118ab601b83611cfd565b91506118b682611e6a565b602082019050919050565b60006118ce600f83611cfd565b91506118d982611e93565b602082019050919050565b60006118f1603f83611cfd565b91506118fc82611ebc565b604082019050919050565b6000611914602a83611cfd565b915061191f82611f0b565b604082019050919050565b6000611937602483611cfd565b915061194282611f5a565b604082019050919050565b600061195a600083611cf2565b915061196582611fa9565b600082019050919050565b600061197d601f83611cfd565b915061198882611fac565b602082019050919050565b60006119a0601c83611cfd565b91506119ab82611fd5565b602082019050919050565b60e0820160008201516119cc6000850182611ad2565b5060208201516119df6020850182611804565b5060408201516119f26040850182611ad2565b506060820151611a0560608501826117f5565b506080820151611a1860808501826117f5565b5060a0820151611a2b60a0850182611ad2565b5060c0820151611a3e60c0850182611880565b50505050565b60e082016000820151611a5a6000850182611ad2565b506020820151611a6d6020850182611804565b506040820151611a806040850182611ad2565b506060820151611a9360608501826117f5565b506080820151611aa660808501826117f5565b5060a0820151611ab960a0850182611ad2565b5060c0820151611acc60c0850182611880565b50505050565b611adb81611de8565b82525050565b611aea81611de8565b82525050565b6000611afb8261194d565b9150819050919050565b6000606082019050611b1a6000830186611813565b611b276020830185611813565b611b346040830184611ae1565b949350505050565b6000608082019050611b516000830187611813565b611b5e6020830186611813565b611b6b6040830185611ae1565b611b78606083018461188f565b95945050505050565b60006020820190508181036000830152611b9b8184611822565b905092915050565b60006020820190508181036000830152611bbc8161189e565b9050919050565b60006020820190508181036000830152611bdc816118c1565b9050919050565b60006020820190508181036000830152611bfc816118e4565b9050919050565b60006020820190508181036000830152611c1c81611907565b9050919050565b60006020820190508181036000830152611c3c8161192a565b9050919050565b60006020820190508181036000830152611c5c81611970565b9050919050565b60006020820190508181036000830152611c7c81611993565b9050919050565b600060e082019050611c986000830184611a44565b92915050565b6000602082019050611cb36000830184611ae1565b92915050565b6000819050602082019050919050565b600081519050919050565b6000602082019050919050565b600082825260208201905092915050565b600081905092915050565b600082825260208201905092915050565b6000611d1982611de8565b9150611d2483611de8565b9250827fffffffffffffffffffffffffffffffffffffffffffffffffffffffffffffffff03821115611d5957611d58611e3b565b5b828201905092915050565b6000611d6f82611de8565b9150611d7a83611de8565b925082821015611d8d57611d8c611e3b565b5b828203905092915050565b6000611da382611dc8565b9050919050565b6000611db582611dc8565b9050919050565b60008115159050919050565b600073ffffffffffffffffffffffffffffffffffffffff82169050919050565b6000819050919050565b6000611dfd82611de8565b91507fffffffffffffffffffffffffffffffffffffffffffffffffffffffffffffffff821415611e3057611e2f611e3b565b5b600182019050919050565b7f4e487b7100000000000000000000000000000000000000000000000000000000600052601160045260246000fd5b7f436f756e7465723a2064656372656d656e74206f766572666c6f770000000000600082015250565b7f5472616e73666572206661696c65640000000000000000000000000000000000600082015250565b7f506c65617365207375626d6974207468652061736b656420707269636520696e60008201527f206f7264657220746f20636f6d706c6574652074686520707572636861736500602082015250565b7f4f6e6c79206974656d206f776e65722063616e20706572666f726d207468697360008201527f206f7065726174696f6e00000000000000000000000000000000000000000000602082015250565b7f5072696365206d75737420626520657175616c20746f206c697374696e67207060008201527f7269636500000000000000000000000000000000000000000000000000000000602082015250565b50565b7f5265656e7472616e637947756172643a207265656e7472616e742063616c6c00600082015250565b7f5072696365206d7573742062652067726561746572207468616e203000000000600082015250565b61200781611d98565b811461201257600080fd5b50565b61201e81611de8565b811461202957600080fd5b5056fea264697066735822122088a7d42c2778a7bcf75cf70276574253a5e4462eb509e1d75337610f80c6b59d64736f6c63430008030033",
  "linkReferences": {},
  "deployedLinkReferences": {}
}